:020000040800F2
:10000000603A002005010008E50E0008810D000897
:10001000490E000869020008F744000800000000CB
:100020000000000000000000000000002D43000858
:100030000104000800000000DB0100089D23000807
:100040001F0100081F0100081F0100081F01000810
:100050001F0100081F0100081F0100081F01000800
:100060001F0100081F0100081F0100081F010008F0
:100070001F0100081F0100081F0100081F010008E0
:100080001F0100081F0100081F0100081F010008D0
:100090001F0100081F0100081F0100081F010008C0
:1000A0001F0100081F0100081F0100081F010008B0
:1000B0001F0100081F0100081F0100081F010008A0
:1000C0001F0100081F0100081F0100081F01000890
:1000D0001F0100081F0100081F0100081F01000880
:1000E0001F0100081F0100081F010008DFF810D0E1
:1000F00000F046F80048004735460008AFF300809E
:10010000603A00200648804706480047FEE7FEE7C1
:10011000FEE7FEE7FEE7FEE7FEE7FEE7FEE7FEE7B7
:100120007D430008ED00000872B6704762B6704764
:10013000EFF3108072B6704780F31088704730BFBD
:10014000704720BF7047B0FA80F0704790FAA0F077
:10015000B0FA80F0704790FAA0F07047D2B201E098
:1001600000F8012B491EFBD270470022F6E710B5BC
:1001700013460A4604461946FFF7F0FF204610BD15
:10018000064C074D06E0E06840F0010394E80700E4
:1001900098471034AC42F6D3FFF7ACFFC8480008CC
:1001A000E84800081D484FF0FF010170002080F36F
:1001B00009881B48016881F308881A484FF080516C
:1001C000016062B6FEE717484FF08051016070474A
:1001D00014484FF080510160704772B6EFF3098008
:1001E00028B1203880E8F00F0F490968086000B591
:1001F0000E4880475DF804EB0D480E490A780270FE
:1002000009480D490A680260106890E8F00F203034
:1002100080F309884EF0F40E62B6704722ED00E0DC
:100220003000002004ED00E01401002085200008CB
:100230008E0000208F0000201801002010B500F073
:1002400005F8BDE8104000F09DBD000010B500F0BD
:10025000EDFA04490968BDE81040B0FBF1F002F086
:10026000B5B80000A0480008FEE70000054910B539
:100270000020486000F0A6F800F006F8BDE8104045
:1002800000F086B8100000202DE9F041104D002448
:1002900027462C806C80AC60EC606C61AC612C619A
:1002A000FFF746FF804600266C6100F049F800F039
:1002B00057F86869761C36040744360CF4D0C5E953
:1002C00004744046AC61BDE8F041FFF735BF000063
:1002D0001000002003490969884201D9401A70477B
:1002E000002070471000002010B5FFF721FF0449DF
:1002F0004C69FFF721FF2046BDE81040FFF7EABF39
:100300001000002010B5FFF7EFFF0446FFF710FFC5
:10031000034A00215161FFF70FFF204610BD000086
:100320001000002010B5FFF703FF04498C69FFF7A8
:1003300003FF2046BDE81040FFF7CCBF10000020AF
:1003400010B5064C2088401C2080608810B900F051
:1003500051F8A0606088401C608010BD1000002033
:1003600010B50A4C6088401E0004000C60800CD15F
:1003700000F040F8E060A168401A6169814200D253
:100380006061A169814200D2A06110BD100000200F
:1003900010B5FFF7CDFE0446FFF7D2FF1021054848
:1003A00000F053FDFFF7DCFF2046BDE81040FFF7EB
:1003B000C3BE0000F80800200149486070470000F3
:1003C00010000020094810B5016841F080710160FB
:1003D000074800214160016841F00101016000F01F
:1003E00025FABDE81040FFF7E7BF0000FCED00E094
:1003F000001000E00148406870470000001000E075
:10040000704770472DE9F84FDFF8B8910024A9F143
:10041000040B23460F2709F1040AABF1040EC9E0CF
:100420000125A5402A40AA427DD1674ED1F804C0DB
:10043000ACEB0608B44532D014DCBCF1030F3AD063
:1004400009DCBCF1000F2AD0BCF1010F1CD0BCF1BB
:10045000020F31D11DE0BCF1110F17D0BCF1120F0A
:100460002AD119E0B8F5881F19D006DCB8F5803F0D
:1004700015D0B8F5801F1FD111E0B8F5001F0ED0C0
:10048000B8F5041F18D10AE0CB6815E0CB681B1D36
:1004900012E0CB6808330FE0CB680C330CE08B68BC
:1004A0002BB1012B4FF0080303D0456104E0042376
:1004B00002E0056100E00023FF2A01D8064601E0C2
:1004C00000F104064FEA840501D9A5F12005D6F80C
:1004D000008007FA05FC28EA0C0803FA05F548EA4B
:1004E0000508C6F800804D68ED0062D5374DAE694D
:1004F00046F00106AE61AD6924F0030605F0010582
:100500000095334D06EB050CDCF80850A607360FB6
:1005100007FA06F825EA0805DFF8B880404503D158
:100520004FF0000817E044E0DFF8AC80404502D10E
:100530004FF001080FE0DFF8A480404502D14FF0F2
:10054000020808E0DFF89880404502D14FF0030828
:1005500001E04FF0040808FA06F848EA0508CCF86C
:1005600008804D68D9F80060ED024D4601D516436C
:1005700000E096432E604D68DAF80060AD02554603
:1005800001D5164300E096432E604D68DBF800600D
:10059000AD035D4601D5164300E096432E604D68DD
:1005A000DEF80060ED03754601D5164300E0964382
:1005B0002E60641C0D682A46E5407FF431AFBDE82B
:1005C000F88F0000080401400000111000100240E4
:1005D0000000014000080140000C014000100140F3
:1005E000001401400AB1016170470904FBE70000F3
:1005F000014880687047000000000020074810B5DF
:10060000016841F010010160032000F067F80F203D
:1006100000F006F800F024F8002010BD0020024091
:1006200070B50D4D04464FF47A712878B1FBF0F0A7
:100630000A490968B1FBF0F000F0D4FA48B9102C6F
:1006400007D200222146501E00F028F800206C60DE
:1006500070BD012070BD0000000000200C000020D3
:100660000C4808B5816941F001018161816901F09F
:1006700001010091C16941F08051C161C06900F080
:10068000805000900448416821F0E06141F0007121
:10069000416008BD0010024000000140F0B40E4B64
:1006A0001B680C46C3F30223C3F10705042D00D9D0
:1006B0000425191D072901D2002300E0DB1E0126B5
:1006C00006FA05F1491E214099409E40761E1640CB
:1006D0003143F0BC03F018BF0CED00E0064900F018
:1006E000070208684FF6FF03184040EA0220034A59
:1006F00010430860704700000CED00E00000FA05B0
:100700002DE9F0470F46050061D0434E306800F0F8
:100710000700B84209D2306820F007003843306043
:10072000306800F00700B84251D128683B4C81077F
:1007300012D5400703D5606840F4E0606060287817
:10074000000703D5606840F4605060606068A96885
:1007500020F0F000084360602878C00728D068685F
:10076000012810D02168022810D0890700292EDA2C
:10077000616821F0030101436160FFF739FF8046A2
:1007800041F288390DE021688903EFE78901EDE73F
:10079000FFF72EFFA0EB0801494502D90320BDE871
:1007A000F0876068696800F00C00B0EB810FEFD152
:1007B000306800F00700B8420BD9306820F007001D
:1007C00038433060306800F00700B84201D00120A3
:1007D000E5E72878400705D56068E96820F4E0601F
:1007E000084360602878000706D56068296920F40E
:1007F000605040EAC100606000F03EF86168084A5D
:10080000C1F30311515CC8400649086006480068FE
:10081000FFF706FF0020C2E7002002400010024060
:100820003E4800080C000020040000200148006839
:10083000704700000C000020044805490068496822
:10084000044AC1F30221515CC84070470C000020EB
:10085000001002404E4800080448054900684968F5
:10086000044AC1F3C221515CC84070470C0000200B
:10087000001002404E4800080E4A51680E4801F030
:100880000C03042B11D0082B0FD10C48C1F3834368
:10089000C903C05C0AD55168084AC1F34041921EA1
:1008A000515C054A5043B0FBF1F07047044948439E
:1008B000704700000010024000127A002E48000825
:1008C00000093D002DE9F84F040070D02078C04D9C
:1008D000C00749D06868C0F38100012807D0686864
:1008E000C0F38100022809D16868C00306D52868D2
:1008F000800339D560680028E7D035E06068B0F53E
:10090000803F0BD010B1B0F5A02F11D0286820F493
:1009100080302860286820F4802002E0286840F4B5
:1009200080302860606890B1FFF762FE06460AE0FA
:10093000286840F480202860F0E700BFFFF758FEE9
:10094000801B642873D828688003F7D50CE0FFF774
:100950004FFE064605E000BFFFF74AFE801B6428F5
:10096000F0D828688003F7D420789A4E80074FF09B
:1009700001094FF0000839D5686810F00C0F07D056
:100980006868C0F38100022809D16868C00306D4F2
:100990002868800714D52069012808D110E0206953
:1009A000B0B1C6F80090FFF723FE074605E00AE164
:1009B000FFF71EFEC01B0228C4D828688007F7D5A1
:1009C0002868616920F0F80040EAC10028600DE065
:1009D000C6F80080FFF70CFE074604E0FFF708FEAC
:1009E000C01B022823D828688007F7D42078000786
:1009F0002CD57948A169D9B1C0F80090FFF7F8FD6E
:100A0000074604E0FFF7F4FDC01B02280FD8686A10
:100A10008007F7D571484FF4FA510068B0FBF1F048
:100A2000009000BF0098411E0091FAD20EE080E0D5
:100A3000C0F80080FFF7DCFD074604E0FFF7D8FDB3
:100A4000C01B022875D8686A8007F7D42078400751
:100A500060D5E8690027C00008D4E86940F08050FC
:100A6000E861E869012700F0805000905C48016867
:100A7000C90513D40168834641F480710160FFF712
:100A8000B7FD824606E000BFFFF7B2FDA0EB0A000B
:100A900064284ED8DBF80000C005F5D5E0680128D1
:100AA0000AD008B1052813D0286A20F00100286276
:100AB000286A20F0040002E0286A40F00100286261
:100AC000E06841F2883B98B1FFF792FD82460BE067
:100AD000286A40F004002862EEE700BFFFF788FDB7
:100AE000A0EB0A0159455AD8286A8007F6D50CE0D0
:100AF000FFF77EFD824605E0FFF77AFDA0EB0A01D5
:100B000059454CD8286A8007F6D41FB1E86920F00F
:100B10008050E861E06988B36968C1F38101022906
:100B200044D00228C6F8608004D0FFF761FD044677
:100B300038E034E0FFF75CFD074604E0FFF758FDBE
:100B4000C01B02282BD828688001F7D4206AB0F592
:100B5000803F05D16868A16820F4003008436860D0
:100B6000D4E908010843696821F4741108436860F6
:100B7000C6F86090FFF73CFD044606E025E000BFA4
:100B8000FFF736FD001B022809D828688001F7D539
:100B90001BE000BFFFF72CFD001B022802D9032039
:100BA000BDE8F88F28688001F4D40EE00128F7D062
:100BB0006868226A00F48031914204D1616A00F4CD
:100BC0007010884201D00120EAE70020E8E7000029
:100BD0000010024000004242800442420C0000200B
:100BE0000070004010B5401EB0F1807F01D301209D
:100BF00010BD4FF0E02460610F21601703F084FC0A
:100C00000020A06107202061002010BD70B5040005
:100C100004D094F84100002510B106E0012070BD19
:100C200084F84050204600F023F8242084F8410046
:100C30002068C16821F40051C160204603F0C6FB62
:100C40002068016921F4904101612068416921F027
:100C50002A0141612068C16841F40051C1606564A6
:100C6000202084F8410084F842006563002070BDB4
:100C700030B585B000240094019402940394006878
:100C80001449884224D11448816941F4804181612A
:100C9000816901F480410491816941F0040181611D
:100CA00080690E4D00F0040004904FF40070009035
:100CB000022001900320039069462846FFF7A2FB1B
:100CC0002815CDE90004694628460294FFF79AFBEF
:100CD00005B030BD0038014000100240000801405E
:100CE0002DE9F843044690F84100984616460D4613
:100CF000202802D00220BDE8F88385B17EB1002013
:100D00006064212084F84100FFF772FCA6848146CC
:100D1000E684A0682027B0F5805F02D003E00120C0
:100D2000E9E7206910B12E4600250EE000260CE010
:100D30008021204603F0A6FBA8B9C6B116F8010B26
:100D400021684860E08C401EE084E08C4B464FF008
:100D50000002CDF800800028EAD14FF04001204683
:100D600003F090FB40B184F841700320C3E735F8ED
:100D7000020BC0F30800E3E784F841700020BAE7F3
:100D8000FEE7000070B586B000241E480094019470
:100D900002940394816941F010018161816901F03D
:100DA00010010491816941F020018161816901F0A4
:100DB00020010491816941F0040181618069124D33
:100DC00000F00400049000224FF400512846FFF781
:100DD00009FC0E4E002208213046FFF703FC42F2C8
:100DE000080000900120CDE901040220039069462B
:100DF0002846FFF707FB69463046FFF703FB06B0BE
:100E000070BD0000001002400010014000080140C9
:100E10000C4810B50A4901604FF4E13141600021EE
:100E200081600C22C160C0E904128161C161FFF7D9
:100E3000EDFE002803D0BDE81040FFF7E2BA10BD78
:100E400000380140B0080020FEE70A46002100F00B
:100E500023B800000D480E490246C0E900120021E7
:100E60008160C160016141618161C16101620163B1
:100E7000C162416200F148018163C1634FF4A05136
:100E800001644164034802607047000008090020C3
:100E9000484541502C00002010B5002A21D00028E0
:100EA0001FD000244FEA04035B1C41EA0424042BF6
:100EB000FAD310F0030305D10BE000BF521E00F877
:100EC000011B5B1C002A0CD0042BF7D301E010C0DF
:100ED000121F042AFBD202E000F8011B521E002A56
:100EE000FAD110BDFEE7704702480068002800D024
:100EF000004770474400002010B5044600F0BEF8DB
:100F0000464800210A220170454801704548017099
:100F100045480160454801604548017045480170F9
:100F200045480170454801604548016045480160F9
:100F30004548017045480068B0FBF2F0444A106033
:100F4000444A106830B14448006818B1126802C0C1
:100F5000521EFCD141480160414801604148016096
:100F600041480160414801604148016041480160D9
:100F70004148017001F06AFF02F01CF8204601F0C0
:100F80003BFA2088002847D1204601F031FD208817
:100F9000002841D1204601F037FD208800283BD1B0
:100FA000204601F0DDFD2088002835D1204601F0E3
:100FB00073FF208800282FD1204602F021F92088D5
:100FC000002829D1204602F08BFB2088002823D15D
:100FD000204601F081FC208800281DD1204601F028
:100FE00019FB2088002817D1204603F037F8208805
:100FF000002811D1204602F0D3FA208800280BD116
:10100000204603F085F82088002805D101F0F2F988
:10101000BDE81040FFF767BF10BD0000580000207A
:1010200060000020A800002014010020180100200A
:101030008E0000208F000020900000209C000020E7
:10104000A0000020A4000020B0000020A04800085C
:10105000AC0000207C4800087848000838000020D8
:101060003C000020400000204400002048000020F8
:101070004C00002050000020DE00002005480649FA
:101080000068096800EB8100044920F0070008604F
:1010900070470000784800087C48000830000020B5
:1010A000184810B5007801282BD1FFF741F8044605
:1010B0001548017801B3491E11F0FF0101701BD1E1
:1010C00012480078C0B901F0AFFE1149087011490B
:1010D00000EB400051F820100F4801600F480068F5
:1010E000814209D051F88C0F401C08600C480168FF
:1010F000491C0160FFF76CF82046BDE81040FFF77F
:101100001BB810BD6000002058000020A80000207F
:101110008F000020643200201801002014010020FC
:10112000D40000202DE9F041044626480E4617461B
:10113000007810B142F6E1600FE064B1FEF7F8FF0D
:101140008046FFF7FDF8204D2878401CC0B228707B
:10115000012805D006E045F6C3501080BDE8F081B7
:1011600001F0EEFFFFF7FCF84046FEF7E5FF1748F9
:10117000C4E900060026266284F825602020A662C5
:1011800084F8240004F1080001F081FD204601F0FC
:10119000D5FC0F490888401C0880FEF7C9FF0446AB
:1011A000FFF7CEF82878401E10F0FF00287001D11C
:1011B00001F0D4FFFFF7D4F82046FEF7BDFF3E80D4
:1011C000CCE7000058000020A80000204D555458DE
:1011D0008C0000202DE9F04F0646854889B01C465A
:1011E0000078129D17468B4610B146F2AE10C3E050
:1011F00036B147B1B7F5004F05D045F62560BBE0E5
:1012000045F6C350B8E07B493068884202D045F6C5
:10121000C450B1E04FF000080CB1C4F80080FEF7F4
:1012200087FF0090FFF78CF896F82500724A01219D
:1012300090B19246336A1268934222D1401C86F8DC
:1012400025000CB1B06A2060FFF78AF80098FEF71D
:1012500073FF45F282708FE01068306290F83700BB
:1012600086F8240086F825100CB1B06A2060FFF7DC
:1012700077F80098FEF760FFA5F8008009B0BDE898
:10128000F08F380407D5FFF76BF80098FEF754FF8E
:1012900046F2B01070E0594802783AB1FFF760F8B2
:1012A0000098FEF749FF46F6635065E081460170FD
:1012B00001F046FFFFF754F80098FEF73DFF376A4C
:1012C000DAF8000097F8372090F837108A421ED9D4
:1012D00097F8360008282ED2DFE800F0041316161F
:1012E00013131616384601F0DFFEDAF8000090F806
:1012F000370087F8370001F0AFFD384601F084FE73
:1013000005E087F8371002E0384601F0A7FC5B469D
:101310000422314601A801F02FFCFEF709FF064622
:10132000FFF70EF899F80000401E10F0FF0089F852
:10133000000023D024E0FEF7FBFE0446FFF700F890
:1013400099F80000401E10F0FF0289F800200CD12F
:1013500001F004FF2A48008838B1FFF701F8204661
:10136000FEF7EAFE01F0CAFE04E0FEF7F9FF2046B0
:10137000FEF7E2FE46F62D6028807FE701F0EEFEE4
:10138000FEF7EEFF3046FEF7D7FE00F031F9FEF72C
:10139000CFFE0646FEF7D4FFDAF8001091F83500CC
:1013A00040B101280CD002281CD003280ED046F6EC
:1013B0002E6010E00CB1086C2060A5F800800BE0F6
:1013C0000CB1086C206046F2A91004E00CB1C4F81E
:1013D000008047F2D9202880FEF7C2FF3046FEF792
:1013E000ABFE4BE70CB1086C206045F6C250F2E74B
:1013F000580000204D55545814010020A80000202A
:101400006C0000202DE9F84F0446734815468A46C3
:10141000007810B146F20E2011E03CB1080008D06F
:10142000B1F5004F05D045F6256008E045F6C350FC
:1014300005E06A492068884204D045F6C45010800F
:10144000BDE8F88FFEF774FE0646FEF779FFDFF879
:101450009091216AD9F80000814207D0FEF780FF01
:101460003046FEF769FE45F28170B2E0DFF8748124
:1014700098F80010491CC9B288F80010012901D160
:1014800001F05EFEFEF76CFF3046FEF755FEFEF7FC
:10149000B1FF0646A06294F82500DFF84CB1401E6B
:1014A00010F0FF0084F8250021D0FEF741FE04462D
:1014B000FEF746FF98F80000401E10F0FF0288F883
:1014C00000200CD101F04AFEBBF8000038B1FEF755
:1014D00047FF2046FEF730FE01F010FE04E0FEF765
:1014E0003FFF2046FEF728FE45F2837071E0208A18
:1014F00004F10807D0B3D9F8001094F8243091F81B
:1015000037209A4214D0084601F0CEFDD9F80010D9
:1015100094F8240081F8370001F09EFCD9F800000F
:1015200001F08EFDD9F80000304990F837000870BE
:10153000386800231A468168216291F8370084F8E0
:101540002400012084F825002046009601F0FFFBCE
:10155000FEF7EEFD0446FEF7F3FE98F80000401E8D
:1015600010F0FF0288F8002026D027E0FFE70026D1
:10157000266284F82560FEF7DBFD0446FEF7E0FEF8
:1015800098F80000401E10F0FF0088F800000CD111
:1015900001F0E4FDBBF8000038B1FEF7E1FE2046A3
:1015A000FEF7CAFD01F0AAFD04E0FEF7D9FE2046D1
:1015B000FEF7C2FD2E8043E701F0D0FDFEF7D0FE1E
:1015C0002046FEF7B9FD5FEA0A4001D400F010F8AA
:1015D0000020288034E70000580000204D55545862
:1015E00014010020A80000206C0000208E000020C4
:1015F000154810B50078002824D114480078002838
:1016000020D1FEF795FD044601F00EFC104908704C
:10161000104900EB400051F820000F4908600F49C5
:101620000968884209D050F88C1F491C01600C4899
:101630000168491C0160FEF7C6FD2046BDE8104068
:10164000FEF77ABD10BD000058000020A800002061
:101650008F000020643200201801002014010020B7
:10166000D400002070B504461248007810B146F648
:1016700062501DE010480078012802D045F68960CC
:1016800016E00E4D2878FA2802D345F209200FE023
:10169000FEF74EFD0646FEF753FE2878401C2870E4
:1016A00001F04EFDFEF75CFE3046FEF745FD0020E2
:1016B000208070BD5800002060000020A80000209D
:1016C0002DE9F04116460C460546FEF731FD07466A
:1016D000FEF736FE29460D480025012901D0057088
:1016E00001E0012101700A480CB1046005E00949DC
:1016F0000A220968B1FBF2F10160FEF731FE3846BB
:10170000FEF71AFD3580BDE8F0810000B000002032
:10171000AC000020A048000870B5044618480078C6
:1017200010B146F6655029E016480078012802D02D
:1017300045F6896022E0144D287890B1FEF7F8FC58
:101740000646FEF7FDFD2878401E10F0FF002870C9
:101750000AD0FEF705FE3046FEF7EEFC46F6635073
:101760000CE046F6645009E001F0F8FCFEF7F8FDE5
:101770003046FEF7E1FCFFF73BFF0020208070BD04
:101780005800002060000020A800002070B50F4D18
:101790000446287818B145F68A60208070BD01F0B3
:1017A00043FB0B4908700B4908700B4900EB4000E4
:1017B00051F8200009490860094908600120287093
:1017C000FEF7F0FC43F69920E7E7000060000020F8
:1017D0008F0000208E0000206432002018010020BD
:1017E000140100202DE9F0410646FEF7A1FC054654
:1017F000FEF7A6FD2E48002404602E4804802E48E3
:1018000004802E4804602E4804602E4804602E4850
:1018100004602E4804602E480481FEF7A1FD28468E
:10182000FEF78AFCFEF784FC0746FEF789FD29488F
:10183000056818E0FEF77CFC0746FEF781FDC5F859
:10184000B040C5F8B44045F8744F2C63AC61AC822D
:10185000EC826C62AC62FEF7CDFD45F8200FA5F17D
:1018600034008481AD6AFEF77BFD3846FEF764FCE8
:10187000002DDFD1FEF75CFC0746FEF761FD164840
:10188000056806E0FEF754FC0746FEF759FDAC85F7
:10189000AD69FEF765FD3846FEF74EFC002DF1D12F
:1018A00002F082FA02F0CCFC3480BDE8F081000046
:1018B000740000206E000020BE000020D000002038
:1018C000E4000020040100205C000020A0000020B3
:1018D00058320020D800002094000020F8B50446BB
:1018E0006946244800F0A4FBBDF8000058BB6A46D6
:1018F0000021022000F0FAFBBDF8000018BBFEF743
:1019000017FC0746FEF71CFD1B4E00253560FEF751
:1019100027FD3846FEF710FC184919480A68036885
:101920009A4202D9B2FBF3F010B90A21B2FBF1F0EE
:101930006A46002100F0DAFB69460E4800F0F0F933
:10194000BDF8000008B12080F8BDFEF7F1FB0746A6
:10195000FEF7F6FC0B480C490560306808600B493F
:1019600001200870FEF7FCFC3846FEF7E5FB2580F9
:10197000F8BD000098350020C0000020A0480008F5
:101980008C480008D0000020C4000020CC000020BB
:1019900002480068002800D0004770474800002037
:1019A0002DE9FF4F83B004467248DDE91785DDE974
:1019B00010960078DDF854A0139F10B147F24A103A
:1019C0002AE04CB1059850B166B16B480068874277
:1019D0000BD246F630601FE047F2AD101CE047F234
:1019E0004F1019E046F62F6016E01298B84202D365
:1019F00046F6316010E046F27320B9F1200F0BD2A9
:101A00005FEA090103D0B9F11F0F02D008E05B497A
:101A100000E05B498C4203D0288007B0BDE8F08F1E
:101A2000204601F06DFE4FF0000BA5F800B05FEA14
:101A3000C8700AD05FEA887007D5304600215A4640
:101A400001E004C0491CB942FBD31298CDE90078EB
:101A500006EB8005DDE905012B46324600F0AEFAC3
:101A60000599A1620699E1620499216284F8379090
:101A7000C4F850A0A56020605FEA0A0024D0606529
:101A80001698A76366626060A4F83C8000205946FF
:101A900004EB8002401C916710F0FF00F8D004F1C5
:101AA0006000149900F0FEFF204600F075F8FEF784
:101AB0003FFB0646FEF744FC324D2878401CC0B27E
:101AC0002870012803D004E02F480068D7E701F010
:101AD00037FBFEF745FC3046FEF72EFB94F8370047
:101AE00001F0BAF9204601F0ABFA204601F0CAFD38
:101AF00026490888401C088025480078012821D004
:101B0000FEF716FB0446FEF71BFC2878401E10F07B
:101B1000FF0129700ED101F021FB1E48008848B159
:101B2000FEF71EFC2046FEF707FB07B0BDE8F04FAE
:101B300001F0E4BAFEF714FC07B02046BDE8F04F10
:101B4000FEF7FABAFEF7F4FA0446FEF7F9FB287836
:101B5000401E10F0FF01297001D101F0FFFAFEF7DD
:101B6000FFFB2046FEF7E8FA07B0BDE8F04FFFF7AD
:101B70003FBD0000580000209C4800089431002020
:101B8000D0300020A8000020AC000020DC000020A5
:101B9000600000206C00002002490968002900D084
:101BA00008477047380000202DE9F04104465148AD
:101BB0000E46007810B147F24E100AE04E488442BB
:101BC00002D147F24C1004E04C48844204D147F261
:101BD0004D100880BDE8F0815CB9FEF7A9FA054612
:101BE000FEF7AEFB46480468FEF7BAFB2846FEF750
:101BF000A3FAFEF79DFA0746FEF7A2FB414D2878AF
:101C0000401CC0B22870012801D101F099FAFEF7FA
:101C1000A7FB3846FEF790FA94F8360008283BD226
:101C2000DFE800F004082B2B0B082B2B204601F0DB
:101C30003BFA02E0204602F097F804F1600000F061
:101C400017FF204600F064F8204601F02DFD2E49D4
:101C50000888401E0880204601F052FDFF2084F8CD
:101C60003600FEF765FA0446FEF76AFB2878401E48
:101C700010F0FF00287030D031E094F834000728CD
:101C8000D8D2DFE800F00405040505050500D1E71A
:101C9000204601F02EF8CDE7FEF74AFA0446FEF79B
:101CA0004FFB2878401E10F0FF0028700CD101F087
:101CB00055FA1648008838B1FEF752FB2046FEF769
:101CC0003BFA01F01BFA04E0FEF74AFB2046FEF760
:101CD00033FA46F62D6030807CE701F03FFAFEF7DC
:101CE0003FFB2046FEF728FA00203080BDE8F04197
:101CF000FFF77EBC58000020D03000209431002037
:101D000014010020A8000020DC0000206C0000204E
:101D100002490968002900D0084770473C000020AC
:101D20007FB50D460446FEF703FA0646FEF708FBAC
:101D30001CB114480068844208D1FEF711FB3046FC
:101D4000FEF7FAF947F2571028807FBDFEF708FB2F
:101D50003046FEF7F1F90C48007858B10020CDE983
:101D6000020500900346024601902146074800F014
:101D700085FC7FBD04B029462046BDE8704001F0D7
:101D8000C1BD0000140100205800002054524553EA
:101D900002490968002900D0084770474000002028
:101DA0002DE9F0478146574814461E46007888467C
:101DB00010B146F2AE1006E0080006D0B1F5004FB3
:101DC00003D045F6256018803DE0002704B1276068
:101DD000FEF7AEF98246FEF7B3FA4B4D2968486C20
:101DE000D8B1401E804648640CB1086C2060FEF7F4
:101DF00001FB29680A6C801AC1F8A000D1F8A42060
:101E0000824201D2C1F8A400FEF7AAFA5046FEF7BA
:101E100093F937804046BDE8F0875FEA084007D570
:101E2000FEF79EFA5046FEF787F946F2B01009E039
:101E30003648017849B1FEF793FA5046FEF77CF92F
:101E400046F6635030800020E5E7012180460170AE
:101E500001F076F9FEF784FA5046FEF76DF900219D
:101E60004B460722084600F087FEFEF761F98146DF
:101E7000FEF766FA98F80010491E11F0FF0188F885
:101E8000001001D101F06AF9FEF76AFA4846FEF740
:101E900053F9FFF7ADFBFEF74BF98046FEF750FA1A
:101EA000286890F8351031B1012916D003291AD0CD
:101EB00046F62E601BE074B1006C2060FEF79AFAC3
:101EC00029680A6C801AC1F8A000D1F8A4208242C7
:101ED00001D2C1F8A40037800AE00CB1006C206088
:101EE00046F2A91003E004B1276047F2D920308000
:101EF0002868446CFEF734FA4046FEF71DF9204688
:101F000089E700005800002014010020A8000020EC
:101F10002DE9F0470546274816460F4600781C462F
:101F200010B147F259100AE046F2D5203FB136B160
:101F3000FEF7FEF88146FEF703FA1DB104E01880B3
:101F4000BDE8F0871C4805684FF00008286858B1C4
:101F500095F83C00C00713D0FEF702FA4846FEF79A
:101F6000EBF80020696A1AE0FEF7FAF94846FEF736
:101F7000E3F8C7F8008047F25210C6F800800AE084
:101F8000FEF7EEF94846FEF7D7F8C7F8008047F2AB
:101F90005410C6F800802080D2E7401C091D0A6852
:101FA000002AFAD03860A96B081A3060A4F80080C3
:101FB000C6E70000580000201401002010B5029C64
:101FC00002EB840222F007024FF0807442E902041F
:101FD000164842F80C0C4FF0123042F8100CA2F1E7
:101FE00014004FF0023240E903134FF0113140F872
:101FF000101CD10040F8141C4FF0093140F8181C97
:10200000910040F81C1C4FF007314FF0033440F8AA
:10201000201C610040F8241C4FF0053140F8281DB9
:102020005100C0E9092440F8041D10BD053A00081C
:102030001FB5104A904202D147F25B1004E00E4AED
:10204000904203D147F25C1008801FBD0B4A127802
:1020500052B10022CDE902210146009213460192BD
:10206000074800F00BFB1FBD04B0BDE8104001F0B5
:1020700099BD0000D030002094310020580000208D
:102080005453555370B51548006800B18047FEF7AA
:10209000B1F9134C134A21681268914207D0D1F864
:1020A0009430C31A41F8903F8D682B448B60C2F87E
:1020B0009400FEF727F92168D1F8B020824201D2BE
:1020C000C1F8B000084AD1F8B4301068834201D298
:1020D000C1F8B4000020106070BD00004C0000206A
:1020E0001401002018010020A40000202DE9F04177
:1020F000074634480E461546007810B147F2752061
:102100001EE0314C207810B146F6635018E046B11D
:10211000022E06D0042E05D0082E02D045F62560EA
:102120000EE05FB1FEF704F88046FEF709F920786B
:10213000401CC0B22070012805D006E047F27E2086
:102140001080BDE8F08100F0FBFFFEF709F9404682
:10215000FDF7F2FF32461D4E2B463946306801F03E
:10216000C5FD288898B1FDF7E3FF0546FEF7E8F8BE
:102170002078401E10F0FF01217001D100F0EEFF29
:10218000FEF7EEF82846BDE8F041FDF7D5BF306810
:1021900000F08AFFFDF7CCFF0646FEF7D1F8207865
:1021A000401E10F0FF00207001D100F0D7FFFEF7B5
:1021B000D7F83046FDF7C0FFFFF71AFA0020288055
:1021C000BFE7000058000020A800002014010020F4
:1021D0002DE9F047594EDDE90854367816B147F23B
:1021E0007520A5E0DFF858A19AF8006016B146F610
:1021F00063509DE015F00E0647F27E2945F62567EF
:1022000005D0022E03D0042E06D0082E07D11BB90C
:1022100012B909B900287CD035F01E0C02D02780F5
:10222000BDE8F087C5F3001547F2792C47F278280E
:102230004FF47A773DB142F20F75A94212D900BF2F
:10224000A4F800C0ECE7BB4202D347F27B206FE06A
:102250003B2A02D947F27A206AE03B29F0D863286A
:1022600002D804E0B84202D3A4F80080D8E7354D84
:102270004FF4FA7CC1EB01112D68BCFBF5FC634403
:102280006B43B3FBF7F34FF46167784300EB8100D6
:10229000104400FB0537E7B3FDF74AFF8046FEF721
:1022A0004FF89AF800005546401CC0B28AF800006A
:1022B000012801D100F044FFFEF752F84046FDF737
:1022C0003BFF3246204E23463946306801F00EFD72
:1022D000208898B1FDF72CFF0446FEF731F82878E6
:1022E000401E10F0FF01297001D100F037FFFEF70A
:1022F00037F82046BDE8F047FDF71EBF306800F014
:10230000D3FEFDF715FF0646FEF71AF82878401EA3
:1023100000E00FE010F0FF00287001D100F01EFF78
:10232000FEF71EF83046FDF707FFFFF761F90020C2
:10233000208075E7A4F8009072E7000058000020A4
:10234000A8000020A04800081401002000B585B0B6
:1023500000F01CF8FEF74EF804AA00210392009149
:10236000CDE9011006480749002300781A4600EB22
:10237000400001EB8001044800F080F905B000BD89
:102380008E000020643200205449434B024800680C
:10239000002800D0004770475000002010B5FDF71E
:1023A000C7FE0446FDF7CCFF07490878401C0870BB
:1023B000FDF7D6FF2046FDF7BFFEFFF7C7FFBDE8DC
:1023C0001040FEF76DBE0000580000204FF0E021E5
:1023D000401E48610648026822F07F420260086998
:1023E00040F005000861086940F00200086170478C
:1023F00020ED00E070470000034A00211160034A0D
:102400001180018070470000780000207C000020CF
:102410002DE9F05F9A4690460D4604460A9FFDF767
:1024200087FE8346FDF78CFF5FEA080024D0012871
:1024300007D0B0F5004F1FD06FF4004118EB010F2B
:1024400012D1206A30EA0500C4E9080A208A04F1A2
:1024500008064FF0000990B14B4D2878401CC0B2DF
:102460002870012815D016E0FDF77AFF5846FDF7D1
:1024700063FE45F6256068E0206A2843E4E7FDF73F
:102480006FFF5846FDF758FEA7F80090206ABDE898
:10249000F09F00F055FEFDF763FF5846FDF74CFE38
:1024A00036682FE090F88410766801F00F0101295A
:1024B00019D002291ED004290DD008290FD0FDF70C
:1024C00037FE0446FDF73CFF2878401E10F0FF0061
:1024D000287026D032E0216AC26F114007E0216ADD
:1024E000C26F114009E0C16F236A0A4699438A42CC
:1024F00004D006E0C16F226A914311B1524600F048
:1025000047F816B1B0680028CCD1FDF711FE064699
:10251000FDF716FF2878401E10F0FF00287017D036
:1025200018E000F01BFE1948008838B1FDF718FFCD
:102530002046FDF701FE00F0E1FD04E0FDF710FF8D
:102540002046FDF7F9FD43F6FF20388000209EE786
:1025500000F004FEFDF704FF3046FDF7EDFD5FEAF5
:10256000084001D4FFF744F8FDF7E2FD0546FDF70A
:10257000E7FE246AFDF7F4FE2846FDF7DDFDA7F827
:102580000090204683E70000A80000206C00002097
:1025900070B50025C0F8801080F8355080F83450B0
:1025A0000446026490F83600082813D2DFE800F0F1
:1025B0001212040412120F0F032802D1204601F058
:1025C000D3FB204600F008FD84F8365002E00420DA
:1025D00084F836002046BDE8704000F08ABB000059
:1025E0000A4C0B4DFDF7A4FD0646FDF7A9FE206839
:1025F000401C20602868401C2860FDF7B1FE304672
:10260000FDF79AFDFEF770FCECE700005400002097
:10261000C000002000B50E4A89B0002111600B22D5
:1026200005910691CDE907200A480B4A0B4B00683B
:1026300012681B680292CDE903011F20CDE9000357
:102640000023074A07A10C48FFF7AAF909B000BD0B
:1026500054000020604800085C4800085848000802
:10266000E125000875432F4F532D494949204964FE
:102670006C65205461736B00D03000202DE9F84F59
:102680001D46DDE90CB4DDE90AA916460F46804671
:10269000FDF74EFD0090FDF753FE1D481D4A0188D1
:1026A000128891422DD2491C89B201801A480288B1
:1026B0008A4200D2018019490868C0F80080C0E948
:1026C00002760582C0F814A0A0F81890C0F81CB0DB
:1026D000406808601248012101811249016041608F
:1026E000002000F0B9FB1048007808B10F490870CD
:1026F00000202080FDF734FE0098BDE8F84FFDF77C
:102700001BBD0B490888401C088044F25360F0E769
:102710006C000020684800086E0000206400002063
:1027200064320020943100208E00002090000020B0
:10273000700000203EB5374C374B02A92068026874
:10274000D51A9A4245D015DC344BD2182DD0344BD3
:10275000D21822D0334BD21832D0334BDA4208D1C0
:10276000C269CDE90021038B028AC168806801F04B
:1027700027F83EBD2D4AAA181ED02D4BD21824D0C2
:102780002C4BDA42F5D1C269CDE90021038B028AD4
:10279000C168806800F08CFB3EBD0091028BC3696C
:1027A00041698068FFF734FE3EBD018BC2698068D5
:1027B00002AB00F031FD3EBD806801F0A3F83EBDE4
:1027C000018BC269806802AB21E0806801F0EAF900
:1027D0003EBD19481949007800EB400001EB80002C
:1027E00000F0DAFC206802AB0021C269144801F055
:1027F00015F914480168491E0160E9D112490968B8
:102800000160FDF7F7FD024602AB00210F4801F021
:1028100005F93EBD680000205449434BADBAB2BE35
:102820000DF90BFAF2F8F7FF0006F6FF00F7FDF7D7
:1028300000FFEFFF03FE0FFE900000206432002037
:10284000A8340020100100200C0100209835002041
:102850001D4D1E4C1E4E00BFFDF76AFC0746FDF7DE
:102860006FFD208808B3FDF77BFD3846FDF764FC5B
:10287000FDF7C0FD0746FFF75DFFFDF7BBFD2968CB
:10288000C01B814200D22860FDF752FC0746FDF7CD
:1028900057FD3068406830602088401E2080FDF77A
:1028A0005FFD3846FDF748FCD6E70A49002008815D
:1028B0000860486000F0E0FAFDF752FD3846FDF789
:1028C0003BFCFEF795FEC5E7740000206C0000207D
:1028D0006800002064320020F0B52F492F4D89B0E8
:1028E00000220A80296831B12D4E3188022905D293
:1028F00044F2546135E044F2526132E02949002348
:10290000294F0A60296801F1200410E041F8087B92
:102910005B1C41F8082B9BB241F8042C21F8102BCA
:1029200041F80C2C21F8082C41F81C4C2034B6F846
:1029300000C06345EAD32B6841F81C3C1B490B607F
:102940001B490B601B490A801B490A801B490B6805
:1029500053B11B4B1B4D1C682D68AC4207D244F28F
:102960005661018009B0F0BD44F25561F9E70324D6
:1029700005920692CDE907401868134B09681B6859
:10298000CDE903020092CDE9011300230F4A10A103
:102990001648FFF705F8E5E77000002064480008D6
:1029A00068480008740000204E4F4E456400002027
:1029B000680000206C0000206E0000206C480008B9
:1029C000744800089C480008704800085128000816
:1029D00075432F4F532D4949492049535220517572
:1029E000657565205461736B000000009431002010
:1029F000034A00211160034A1180018070470000E2
:102A00008000002084000020F0B5164C216859B1E8
:102A1000154E318859B189B2491E22688FB20025FE
:102A200002F1100329460EE045F21E7118E045F24E
:102A30001D7115E0E2E802316D1C22F8081BADB2F1
:102A400042F8041C1033BD42F4D31160516011816F
:102A5000D160064A2368136033889380D180118146
:102A60000180F0BD844800088048000858320020EA
:102A700010B5428992B10A4903680C681C6043682A
:102A80000B60CB8844891B1BCB808B8844892344F3
:102A90008B8000214181818101604160104610BD21
:102AA0005832002001810021418181810160416013
:102AB00070470000F0B54489DDE905E70589AC42BF
:102AC00002D346F293501EE01B4DAE88CEB12C6867
:102AD000761ED4F800C0C5F800C0AE80EE88761C23
:102AE000B6B2EE80B5F808C0B44500D22E81468952
:102AF000002556B1DB060ED403681C600460256017
:102B00000CE045F21D703880F0BD04600123446084
:102B10004381256005E043682360446043895B1C72
:102B20004381868943899E4200D2838161602281EC
:102B3000C4F80CE03D80F0BD583200200022074B65
:102B400005A14261C161196819B1816148611860CC
:102B500070478261FBE70000200000008800002031
:102B6000034A00211160034A118001807047000070
:102B7000880000208C0000202DE9F041114D07460F
:102B80000C4628680026194680F8342080F8356005
:102B900000F064FD64B1FC6004F1080601223946CE
:102BA000286800F011F83946304600F075F802E068
:102BB0002868C687066320462968BDE8F04100F012
:102BC0001BB800001401002010B5C2870024234662
:102BD00001630EE04B6041F8103B641C41F8103B70
:102BE000A4B241F80C3C21F8083C41F8043C41F8FF
:102BF000180C9442EED310BD38B14268C1F8C02021
:102C000081688968096AC161704791F834000228B7
:102C100003D0072803D004A002E004A000E005A030
:102C2000C1F8C00070470000200000005461736BC1
:102C3000205100005461736B2053656D000000004B
:102C400005A2C1F8C020816811B18968096A00E055
:102C500001A1C161704700002000000070B580F83C
:102C60003710C68F056B0FE0EC68208A0834012806
:102C700007D92946204600F04FF82946204600F0A3
:102C80000BF8761EB6B22035002EEDD170BD0021B6
:102C9000016041600181704730B58A68002392F875
:102CA000374002891AB1521C028102680BE00122EE
:102CB00002814B600B60016014E0956895F8375015
:102CC000A54203D85268002AF7D107E032B1146850
:102CD00054B1C1E900426160116030BD4B6042688F
:102CE0000A605160416030BD1160C1E9003201608D
:102CF00030BD70B50646C48F056B07E0E86829460D
:102D0000083000F009F8641EA4B22035002CF5D17B
:102D10000020F087306370BD10B502890023012ABE
:102D20000BD00A6862B14C6874B1546022600289A9
:102D3000521E02814B600B6010BD03604360F6E7DA
:102D40004A6813600260F2E753604260EFE7F8B54B
:102D50000C46064691F836100025069808294ED2F2
:102D6000DFE801F04D4D04044D4D282894F834104F
:102D7000032910D0A265A4F85C30206436B1204647
:102D8000FFF7B7FF21463046FFF75AFF94F83600A9
:102D9000032806D008E000902146304600F030F8C5
:102DA000ECE7204600F0E0FF204600F015F984F83B
:102DB000365020E094F83410032910D0A265A4F80E
:102DC0005C30206436B12046FFF793FF2146304641
:102DD000FFF736FF94F83600072806D008E0009089
:102DE0002146304600F00CF8ECE7204600F0BCFF2E
:102DF000042084F8360084F8355084F83450F8BD47
:102E000070B50C6B049DC98F0AE0E668864204D158
:102E1000C4E904022383E56170BD491E89B22034F0
:102E20000029F2D170BD000010B50024064802E070
:102E30002034E4B2001D01680029F9D00846FDF7EE
:102E400082F92044C0B210BD3400002001490020A6
:102E5000086070473400002000F01F024109012083
:102E6000C2F11F029040034A52F82130034342F856
:102E7000213070473400002000F01F02410901207A
:102E8000C2F11F029040034A52F82130834342F8B6
:102E90002130704734000020034A00211160034AAA
:102EA00011800180704700009400002098000020ED
:102EB0002DE9FF4F83B01F46DDE9109A9346064681
:102EC000FDF736F90546FDF73BFA384C2078401CF3
:102ED000C0B22070012801D100F032F9FDF740FAAC
:102EE0002846FDF729F9358A06F108001DB1B90514
:102EF00030D500683CE0F80601D4002300E0102340
:102F0000CDE9009A5A4606F120000499FFF7D2FD58
:102F1000FDF70EF90546FDF713FA2078401E10F074
:102F2000FF0121700ED100F019F92148008848B145
:102F3000FDF716FA2846FDF7FFF807B0BDE8F04F99
:102F400000F0DCB8FDF70CFA07B02846BDE8F04FFA
:102F5000FDF7F2B8006801255B46D0E90181CDF8A4
:102F600000903046049AFFF7F2FE6D1E4046ADB267
:102F7000002DF1D1FDF7DCF80546FDF7E1F92078E9
:102F8000401E10F0FF00207001D100F0E7F8FDF7BF
:102F9000E7F92846FDF7D0F8380401D4FEF728FBFE
:102FA0000021AAF8001007B0BDE8F08FA8000020AB
:102FB0006C0000200020074B014600BF00EB4002E0
:102FC00003EB8202401C11811160C0B251602028C5
:102FD000F4D370476432002010B5044690F83700EF
:102FE000FFF73AFF074994F83700097888422046EE
:102FF00003D1BDE8104000F023B8BDE8104000F058
:1030000003B800008E00002090F837100B4A01EB47
:10301000410102EB810100220B8943B15B1C0B8152
:103020000B68C0E903320A68106108607047012329
:103030000B81C26002610860486070476432002002
:1030400090F837100A4A01EB410102EB810100229E
:103050000B893BB15B1C0B81C2604A680261D06086
:103060004860704701230B81C26002610860F7E786
:103070006432002010B50289002A14D0012A12D02F
:103080000021022A07D0D0E90024D3681961C2E9DF
:103090000314E26005E0D0E90023C2E90313C3E9A9
:1030A0000321C0E9003210BD70B5054690F8370025
:1030B000114900EB400001EB8001D5E90302002437
:1030C00042B10B895B1E0B81D06090B102612C6113
:1030D000EC6070BD28B10A89521E0A810461086043
:1030E000F5E70C810C604C6095F83700FFF7C4FEE3
:1030F000EDE74A60EBE700006432002010B5FDF711
:1031000017F80B490446002008700B480949016074
:1031100051F88C0F401C086008480168491C016088
:10312000FDF751F82046BDE81040FDF705B8000056
:103130008F0000209431002018010020D4000020CE
:10314000044810B50078012803D1FDF753F902496E
:10315000086010BDA80000209C0000200A4810B59F
:10316000007800280ED1FDF745F908490968401A92
:1031700007490A68824200D2086006490A6882420A
:1031800000D2086010BD0000A80000209C000020B4
:10319000A0000020A400002070B504461448007868
:1031A000012824D1FCF7C4FF0546FDF7C9F82168C2
:1031B000B1B11048814213D04A6D12B1521E4A6516
:1031C0000ED1208902280BD30B48007840B9204645
:1031D000FFF750FF2068016D09B90849096841658A
:1031E000FDF7BEF82846BDE87040FCF7A5BF70BDEE
:1031F000B0000020D0300020A8000020AC0000204B
:10320000034A00211160034A1180018070470000C9
:10321000B4000020B80000202DE9F84F1E4690466B
:1032200089460446FCF784FF0090FDF789F8208A60
:1032300004F108074FF0000B50B1DFF8BCA09AF87A
:103240000010491CC9B28AF8001001291AD01BE0ED
:10325000256A681C0CD06D1CC4E90858FDF780F87D
:103260000098FCF769FFA6F800B02846BDE8F88F83
:10327000FDF776F80098FCF75FFF46F6C550308002
:103280000020F3E7FFF75CFFFDF76AF80098FCF712
:1032900053FF5FEA895002D53D893F680CE03F68E3
:1032A00001250023B9687F681A462046CDF80080C2
:1032B000FFF74DFD6D1EADB2002DF2D1246AFCF773
:1032C00037FF0546FDF73CF89AF80000401E10F065
:1032D000FF008AF8000001D1FFF740FFFDF740F83A
:1032E0002846FCF729FF5FEA094001D4FEF780F980
:1032F000A6F800B02046B9E7A80000200EB5964C0D
:10330000964E2068450004E028466A460021FEF7F4
:10331000EDFE30780128F7D16846FEF763FA904851
:1033200022680168914206D90A462168B2FBF1F190
:103330005FEA010803D100680A21B0FBF1F8DFF869
:1033400024B2894F42F2107A5FF00006FDF752F87E
:103350000190FCF7E7FF85490860FCF7E9FE0546A8
:10336000FCF7EEFF8248834C016821600660FCF7A1
:10337000F7FF2846FCF7E0FE7F48236802689A4280
:103380002BD97E48824202D25046012115E07C486A
:10339000824203D24FF47A700A210EE079488242C9
:1033A00002D26420014608E07748824203D20A2014
:1033B0004FF47A7101E001205146B2FBF1F158431C
:1033C000B0FBF1F0AAEB0000704980B2ABF800004E
:1033D0000A88824203D2088001E0ABF800A0FEF721
:1033E000D7FA0024FCF7A4FE8146FCF7A9FF3D684C
:1033F00042E000BFFCF79CFE0290FCF7A1FFDFF863
:10340000909199F80010491CC9B289F8001001295F
:1034100001D1FFF795FEFCF7A3FF0298FCF78CFEA5
:10342000D5F89800C5E92660FCF782FE0290FCF70B
:1034300087FF99F80010491E11F0FF0189F800106C
:103440000CD1FFF78BFE5348008838B1FCF788FF9A
:103450000298FCF771FEFFF751FE04E0FCF780FFD5
:103460000298FCF769FE55F89C0F0444FCF760FED7
:103470008146FCF765FF2D6AFCF772FF4846FCF7B2
:103480005BFE002DB6D12CB33C48844202D2554697
:10349000012015E03A48844203D24FF47A750A209D
:1034A0000EE03848844202D26425284608E03648B7
:1034B000844203D20A254FF47A7001E00125504678
:1034C000B4FBF0F08146FCF733FE0290FCF738FFC6
:1034D0003C6822E000250120F4E700BFD4F89C00FE
:1034E0006843B0FBF9F080B2504500D95046A4F8CB
:1034F0008800B4F88A10814201D2A4F88A0004F14D
:10350000A8026B46111D2046FEF702FDFCF710FED7
:103510000290FCF715FFD4F8BC40FCF721FF02989D
:10352000FCF70AFE002CD9D11B480178012903D1F0
:1035300006706846FEF756F9FCF75CFF0199401AE1
:1035400016490A68824200D208606A460021404655
:10355000FEF7CCFDFAE600008C480008CC00002005
:10356000A0480008BC000020D80000205C0000201B
:10357000C0000020C8000020C4000020801A0600FF
:1035800000093D00005A62020084D717BE000020E7
:10359000A80000206C000020BA000020D00000200D
:1035A00030B51D4A89B0002111601C4A11601C4AC7
:1035B00011601C4A11701C4A11701C4A136843B1F7
:1035C0001B4B1C4D1C682D68AC4205D246F62C6185
:1035D00008E046F62B6105E0174C25781F2D04D333
:1035E00046F62A61018009B030BD03250591069198
:1035F000CDE9075011481B6812680068CDE9012029
:10360000CDE903312078009000230D4A0DA1124826
:10361000FEF7C6F9E7E70000C0000020C800002060
:10362000C4000020CC000020BA0000209048000810
:10363000984800089C4800088848000894480008FA
:10364000FD32000875432F4F532D494949205374CB
:103650006174205461736B00E433002010B504469C
:1036600031B10A460146064800F010FB032000E095
:10367000022084F836002046BDE81040FFF714BD54
:10368000F0000020074B0022C0F8B820196829B1CB
:10369000C0F8BC10C1F8B80018607047C0F8BC2072
:1036A000FAE70000D8000020D0E92E2100234AB11B
:1036B00081B1C2F8BC10C1F8B820C0F8BC30C0F865
:1036C000B8307047054A116009B1C1F8B830C0F888
:1036D000BC307047C2F8BC30F1E70000D8000020D1
:1036E000044A00211160044A1180044A11600180DB
:1036F00070470000D8000020DC000020D40000202B
:1037000070B50025056085604560C560056145614F
:103710000446856127A0C4E907506562A562E56299
:103720002563E5872564A565A4F85C50002104F1B4
:103730006000FFF7B7F925676567E567A4F884506F
:103740000020C4F8805000BF04EB8001401C8D674E
:1037500010F0FF00F8D06564C4F8A050C4F8A4507D
:10376000A56384F88650C4F8AC50C4F8A850A58767
:10377000A564E56425656565A4F88850A4F88A50B9
:10378000C4F88C50C4F890503434FCF733FEC4E9CC
:103790001805E567C4F8805004F8015B202004F8A0
:1037A000015B04F8015B04F8810B04A020C4C4E9A8
:1037B000005070BD3F5461736B000000200000009A
:1037C0002DE9FC5F0546DDE90C760020994692461E
:1037D0008B463080FCF7ACFC8046FCF7B1FD464CD4
:1037E0002078401CC0B22070012801D1FFF7A8FC4E
:1037F000FCF7B6FD4046FCF79FFC0DB93F48056855
:10380000DFF8FC8095F83600082852D2DFE800F097
:103810000404262604042626CDE900764B465246AB
:10382000594605F16000FFF745F9FCF781FC0546B4
:10383000FCF786FD2078401E10F0FF01217031D189
:10384000FFF78CFCB8F8000060B3FCF789FD284650
:10385000FCF772FCBDE8FC5FFFF750BC95F8340044
:103860000228D9D153465A46294600200097FFF72F
:103870006EFAFCF75DFC0546FCF762FD2078401E01
:1038800010F0FF01217001D1FFF768FCFCF768FD23
:103890002846FCF751FC5FEA09402AD4BDE8FC5FEA
:1038A000FDF7A6BEFCF75CFD2846BDE8FC5FFCF713
:1038B00043BCFCF73DFC0546FCF742FD2078401E6A
:1038C00010F0FF0020700CD1FFF748FCB8F80000A2
:1038D00038B1FCF745FD2846FCF72EFCFFF70EFC3F
:1038E00004E0FCF73DFD2846FCF726FC46F62D607B
:1038F0003080BDE8FC9F0000A800002014010020DB
:103900006C0000202DE9F0410D460446FCF710FC48
:103910000746FCF715FD00262E8094F8360008288F
:1039200064D2DFE800F0040404040D394955FCF7C3
:1039300017FD3846FCF700FC47F25310288037E0AB
:103940002F4D2878401CC0B22870012801D1FFF704
:10395000F7FBFCF705FD3846FCF7EEFB94F8860014
:10396000401E10F0FF0084F8860004D184F8366011
:103970002046FFF731FBFCF7DBFB0446FCF7E0FCDD
:103980002878401E10F0FF01297001D1FFF7E6FBF7
:10399000FCF7E6FC204609E094F88600401E10F093
:1039A000FF0084F886001BD101200EE0FCF7C4FB69
:1039B000BDE8F041FDF71CBE94F88600401E10F0F3
:1039C000FF0084F886000BD1022084F8360007E05F
:1039D00094F88600401E10F0FF0084F8860003D0A3
:1039E000FCF7BEFC3846E1E70320EEE7FCF7B8FC45
:1039F0003846FCF7A1FB46F62D602880BDE8F08133
:103A0000A8000020044808B50068FEF7C1F969461F
:103A10000020FEF7C9F808BD140100202DE9F84F79
:103A2000984691468B460646FCF782FB0546FCF716
:103A300087FC594C2078401CC0B22070012801D16D
:103A4000FFF77EFBFCF78CFC2846FCF775FB0EB9F4
:103A5000524806680020524FC6F84090A8F800006F
:103A600096F8360046F6C55A082872D2DFE800F00C
:103A700033332F2F33332F2FFCF772FC2846FCF7FC
:103A80005BFBFFF73BFB04E0FCF76AFC2846FCF716
:103A900053FBA8F800A00020BDE8F88F6D1C7564EA
:103AA000FCF746FB0646FCF74BFC2078401E10F066
:103AB000FF00207047D1FFF751FB3888F0B3FCF7C7
:103AC0004FFC3046FCF738FBFFF718FB62E096F836
:103AD0003400072813D0756C681CDFD1FCF728FB75
:103AE0000546FCF72DFC2078401E10F0FF002070EA
:103AF000CAD1FFF733FB38880028C5D0BCE70023C4
:103B00001A4631461846CDF80090FFF720F9756C3B
:103B1000FCF70EFB0646FCF713FC2078401E10F065
:103B2000FF00207001D1FFF719FBFCF719FC3046AC
:103B3000FCF702FB5FEA0B402CD401E003E008E055
:103B4000FDF756FD26E0FCF70BFC3046FCF7F4FAD7
:103B500020E0FCF7EDFA0546FCF7F2FB2078401E6A
:103B600010F0FF0020700BD1FFF7F8FA388838B159
:103B7000FCF7F6FB2846FCF7DFFAFFF7BFFA04E094
:103B8000FCF7EEFB2846FCF7D7FA46F62D60A8F8BE
:103B90000000002528467FE7A8000020140100202F
:103BA0006C0000202DE9F0410D460446FCF7C0FAF8
:103BB0000746FCF7C5FB334804B90468016832487E
:103BC0008C4209D1017839B1FCF7CAFB3846FCF7C1
:103BD000B3FA46F6635052E00021298094F836107B
:103BE0000126082944D2DFE801F0043133393B3B98
:103BF0003B3B05460078401CC0B22870012801D12B
:103C0000FFF79EFAFCF7ACFB3846FCF795FA042068
:103C100084F8360084F886602046FFF745FAFCF702
:103C200087FA0446FCF78CFB2878401E10F0FF0151
:103C3000297001D1FFF792FAFCF792FB4FEA0400DA
:103C4000FCF77AFABDE8F041FDF7D2BC052000E0B0
:103C5000062084F8360084F8866005E00720F8E73F
:103C600014F8860F401C2070FCF77AFB3846E7E713
:103C7000FCF776FB3846FCF75FFA46F62D602880A5
:103C8000BDE8F08114010020A800002030B50368D1
:103C9000002433B94C618A64C1E906400160012106
:103CA0000FE09D6C954216D39D694B618A6455B1B6
:103CB000C1E906509C6CA21A9A6499616961818875
:103CC000491C818030BDC1E906409C6CA21A9A64EF
:103CD00099610160F3E7521B1D465B69002BE0D13F
:103CE0004C618A64C1E90650E8E70000F0B51C4663
:103CF0001B4BDFF868C000251B6847F27E26042AAC
:103D000004D0082A08D029B10A4614E0CA1A62452C
:103D100000D882B985641EE0D0F84CE0A3EB0E0712
:103D20008F4202D90A46991804E0CA1B62450BD893
:103D300052B17144C164012180F83610014609482E
:103D4000FFF7A4FF2580F0BDB7FBF1F201FB02E213
:103D50001144C0E912512680F0BD00000000FFFFB1
:103D6000E0000020E800002030B5D0E90524C36958
:103D7000002174B1626122B19461946C856C2C4411
:103D8000946481619A88521E9A8041618164C16104
:103D900030BD32B19161946C856C2C4494641A608E
:103DA000F0E719609980F1E7704700002DE9F047CE
:103DB000FCF7BEF90446FCF7C3FADFF8C88098F8B0
:103DC0000000401CC2B288F80020012A01D1FFF790
:103DD000B7F9FCF7C5FA2046FCF7AEF9FCF70AFB89
:103DE000294D074600262C6814B3A06CB146401E2E
:103DF0004FF0040AA06418E0761C94F83600B6B2BE
:103E0000012802D0052806D007E084F83690204625
:103E1000FFF7E2F801E084F836A064692C60CCB1C9
:103E2000A888401EA880C4F81890A06C0028E3D091
:103E3000EE80FCF7DFFAC41BFCF77AF90546FCF7C5
:103E40007FFA98F80000401E10F0FF0088F800008C
:103E500003D00FE0A5F80490EAE7FFF77FF90B48DD
:103E6000008838B1FCF77CFA2846FCF765F9FFF7C3
:103E700045F904E0FCF774FA2846FCF75DF92046A2
:103E8000BDE8F087A8000020E80000206C000020BA
:103E90002DE9F047FCF74CF90446FCF751FADFF83E
:103EA000FC9099F80000401CC2B289F80020012A59
:103EB00001D1FFF745F9FCF753FA2046FCF73CF92E
:103EC000FCF798FA364D074600262C68DCB3A06C48
:103ED0004FF0030A401EB046A06431E0761C94F80F
:103EE0003600B6B2032802D0072810D020E0C4F86C
:103EF0005880A4F85C80FCF77DFA20642046FEF729
:103F0000F8FE2046FFF768F884F836800CE0C4F825
:103F10005880A4F85C80FCF76DFA20642046FEF718
:103F2000E8FE042084F8360084F835A084F8348054
:103F300064692C60CCB1A888401EA880C4F81880A1
:103F4000A06C0028CAD0EE80FCF754FAC41BFCF722
:103F5000EFF80546FCF7F4F999F80000401E10F060
:103F6000FF0089F8000003D00FE0A5F80480EAE71D
:103F7000FFF7F4F80B48008838B1FCF7F1F9284650
:103F8000FCF7DAF8FFF7BAF804E0FCF7E9F928469D
:103F9000FCF7D2F82046BDE8F0870000A80000201A
:103FA000F00000206C0000201CB5274C274D00219C
:103FB0006B4601AA0846FDF7F3FEBDF80000002895
:103FC000F5D1234800780128F1D1FCF7B1F8064675
:103FD000FCF7B6F92078401CC0B22070012801D14E
:103FE000FFF7AEF8FCF7BCF93046FCF7A5F8194826
:103FF0000168491C0160FCF79BF80646FCF7A0F934
:104000002078401E10F0FF0020700CD1FFF7A6F8BA
:104010001148008838B1FCF7A3F93046FCF78CF85A
:10402000FFF76CF804E0FCF79BF93046FCF784F8E6
:10403000FFF7BCFE0646FFF72BFF2968304481429C
:10404000B5D22860B3E70000A8000020E4000020FB
:1040500060000020E00000206C00002030B51D4A08
:1040600089B0002111601C4A1C4B116019609180BD
:10407000D1801B4A9980D980136843B1194B1A4DDE
:104080001C682D68AC4205D247F2132108E047F2C4
:10409000122105E0154C25781F2D04D347F211217C
:1040A000018009B030BD0B2505910691CDE907507F
:1040B00018680F4B12681B68CDE90301CDE9012395
:1040C0002078009000230B4A0BA11048FDF768FCF4
:1040D000E7E70000E0000020E8000020F0000020FA
:1040E000A8480008B04800089C480008A4480008F8
:1040F000AC480008A93F000875432F4F532D49498C
:1041000049205469636B205461736B00A83400200C
:1041100030B50546294889B00024046028482A495A
:104120002A4A04602748048029480B681BB112689A
:10413000B2FBF3F103E011680A22B1FBF2F1016076
:10414000084624492A460860234825A104602348DC
:1041500004602748FCF7E6FF2888002815D1254889
:10416000016841B12449254B0A681B689A4205D26F
:1041700047F2483008E047F2473005E0204A13781C
:104180001F2B04D347F24630288009B030BD0B23E3
:10419000CDE906431B4B089505941B680968006828
:1041A000CDE90103CDE90314107800900023164AED
:1041B00016A11C48FDF7F4FBE7E70000F80000201B
:1041C00000010020FC000020B8480008A0480008BA
:1041D0000C01002010010020080100200401002033
:1041E0004F5320546D72204D7574657800000000A7
:1041F0006C350020BC480008C44800089C480008F2
:10420000B4480008C04800084542000875432F4FD5
:10421000532D4949492054696D6572205461736B6F
:1042200000000000983500200EB501A80022009083
:1042300002AB11460148FCF7CDFF0EBD6C350020E6
:10424000704700001CB5DFF88880DFF88890DFF841
:1042500088A000216B4601AA0846FDF7A1FDFFF7E3
:10426000E3FFFCF7C7F8D8F800100646491CC8F869
:1042700000100327D9F8004018E06846FDF7F2F96E
:10428000A0692569401EA0610CD1A08C02281BD01A
:10429000204600F023F884F82670A26812B1204668
:1042A000E16890472C466846FDF736FA002CE4D1C9
:1042B000FCF7A0F8841B00F02FF8DAF80010A142F8
:1042C000C7D2CAF80040C4E7206AA061E5E7000051
:1042D0000801002000010020040100200C4B10B553
:1042E0001C6800220169844203D1196029B14A6126
:1042F00003E04369196101B14B61012180F8261087
:104300000449026142610888401E088010BD000017
:1043100000010020FC00002008B56A460021024888
:10432000FDF770F808BD00006C350020704730B50F
:104330008FB028216846FBF718FF14210AA8FBF765
:1043400014FF01210804CDE9001000240294022585
:104350000491CDE907504FF4E01009906846FCF74E
:10436000B1FA0F20CDE90A056802CDE90C4002211F
:104370000AA80E94FCF7C4F90FB030BD704701686D
:104380000C3151E8002F22F4907241E80023002BF9
:10439000F5D10168143151E8002F22F0010241E803
:1043A0000023002BF5D1016B012909D101680C31E3
:1043B00051E8002F22F0100241E80023002BF5D134
:1043C000202180F8421000210163704770B5044637
:1043D00000680169E26821F44051114301612169DB
:1043E000A0680843616908432168CA6841F20C6308
:1043F0009A430243CA6020684169A26921F440716E
:10440000114341611E492068884202D1FCF724FA19
:1044100001E0FCF711FA00EBC00101EB001260684B
:1044200064218000B2FBF0F3B3FBF1F36FF01806E8
:104430007343B2FBF0F5B2FBF0F605EB83053223D4
:1044400003EB0515B5FBF1F5B6FBF1F605F0F0054C
:1044500005EB0615B2FBF0F6B2FBF0F0B0FBF1F0A5
:104460006FF01802504306EB800003EB0010B0FB26
:10447000F1F0216800F00F002844886070BD000052
:10448000003801402DE9F843984617460D4604468A
:10449000089E24E0701C22D0FCF7AAF8A0EB0800CC
:1044A000B0421AD8CEB12068C168490717D5802D0F
:1044B00015D0402D13D00168C94309070FD40168F6
:1044C0000025406800902046FFF759FF08206064EF
:1044D00084F840500120BDE8F8830320FBE7206802
:1044E000006835EA000004D00020B842D2D0002095
:1044F000F1E70120F9E7FEE7014A024900F023B89D
:10450000694500081C0100200907090E002804DB8A
:1045100000F1E02080F80014704700F00F0000F177
:10452000E02080F8141D704702E008C8121F08C17F
:10453000002AFAD170477047002001E001C1121F24
:10454000002AFBD170472DE9F04116460F4604467C
:10455000002503E03946B047641C6D1C2078002814
:10456000F8D12846BDE8F08113B54FF6FF7301225C
:1045700069460248FCF7B4FB00981CBDB008002057
:104580000EB5FBF75BFEFBF771FEFCF763FC02A8C0
:10459000FDF7A4F9FBF7B6FE0E4E002502AC002293
:1045A00008213046FCF71EF80023CDE90054032211
:1045B00019461846FDF70CFE012208213046FCF78B
:1045C00011F80023CDE90054032219461846FDF7DF
:1045D000FFFDE4E7000801400EB5FBF72FFEFBF7F7
:1045E00045FEFCF737FC02A8FDF778F9FBF78AFED9
:1045F0000F4F002502AC4FF40056002231463846DA
:10460000FBF7F0FF0023CDE90054012219461846BC
:10461000FDF7DEFD012231463846FBF7E3FF0023BC
:10462000CDE90054012219461846FDF7D1FDE4E713
:104630000010014010B58AB009A8FCF75DFCFBF73B
:10464000DDFFFFF774FEFCF7E3FB002006AB09AAD1
:104650000321059083E8070060220923094CCDE976
:104660000232CDE9001404900346074A07A104F57D
:104670009060FDF795F909A8FDF788F80AB00020C9
:1046800010BD000020010020DD4600087374617237
:1046900074207461736B00000EB5FBF7CFFDFBF760
:1046A000E5FDFCF7D7FB02A8FDF718F9FBF72AFE9A
:1046B000002402AD05A0FFF71FFF002302221946C8
:1046C0001846CDE90045FDF783FDF3E768656C6C9E
:1046D0006F2075632F4F53200D0A00002DE9F04322
:1046E0008BB0FBF7ABFD09A8FDF7F8F8FBF70AFE66
:1046F000012109AA0846FCF7E3FFFBF719FD044670
:10470000FBF71EFEDFF8E09099F80000401CC2B2F3
:1047100089F80020012A01D1FEF712FDFBF720FEE7
:104720002046FBF709FD00244FF00308CDE90648B9
:1047300009AE2E4801A94027062508960594049441
:1047400081E8A100042000902346294A29A12C4891
:10475000FDF726F9CDE906482A4801A908960594EF
:10476000049481E8A1000023274A28A100F5537092
:104770000095FDF715F9CDE90648264801A90896E8
:104780000594049481E8A100052000901C480023B2
:10479000214A22A1C430FDF703F9194809A9C438F8
:1047A000FFF700FAFBF7C4FC0446FBF7C9FD99F8D4
:1047B0000000401E10F0FF0289F800200ED1FEF725
:1047C000CDFC1948008848B1FBF7CAFD2046FBF72D
:1047D000B3FCFEF793FC0BB0BDE8F083FBF7C0FD24
:1047E0002046FBF7A9FCF6E7A8000020A002002065
:1047F000D94500086C65645F7063313300000000C8
:1048000064060020A0040020814500086C65645FF8
:1048100070613300A00300209946000873656E6440
:104820005F6D7367000000006C000020010202034E
:104830000405060708090A0B0C0D0E0F10100000E6
:104840000000000000000102030406070809000040
:104850000000010203040000501D00200C000000B5
:1048600080000000501F00200A000000902000205F
:104870000C0000008000000090220020800000005A
:1048800064000000902400200B0000000A000000DB
:10489000D02A00200C000000800000004000000032
:1048A000E80300000A000000D02C00200C000000EB
:1048B000800000000B0000000A000000D02E002045
:1048C0000C00000080000000E84800080000002004
:1048D0002001000028450008084A000820010020A7
:1048E00040390000384500080100000010000000B9
:1048F0000000000000127A0000000000000000002C
:1049000000000000000000000000000000000000A7
:104910000000000000000000000000000000000097
:104920000000000000000000000000000000000087
:104930000000000000000000000000000000000077
:104940000000000000000000000000000000000067
:104950000000000000000000000000000000000057
:104960000000000000000000000000000000000047
:104970000000000000000000000000000000000037
:104980000000000000000000000000000000000027
:104990000000000000000000000000000000000017
:1049A0000000000000000000000000000000000007
:1049B00000000000000000000000000000000000F7
:1049C00000000000000000000000000000000000E7
:1049D00000000000000000000000000000000000D7
:1049E00000000000000000000000000000000000C7
:1049F00000000000000000000000000000000000B7
:084A00000000000000000000AE
:04000005080000ED02
:00000001FF
