:020000040800F2
:10000000C005002005010008CF20000811160008D7
:10001000CD2000083B040008332400080000000045
:10002000000000000000000000000000AD210008FA
:10003000A104000800000000D12000085722000899
:100040001F0100081F0100081F0100081F01000810
:100050001F0100081F0100081F0100081F01000800
:100060001F0100081F0100081F0100081F010008F0
:100070001F0100081F010008710400087D0400082A
:1000800089040008950400081F0100081F010008EA
:100090001F0100081F0100081F0100081F010008C0
:1000A0001F0100081F0100081F0100081F010008B0
:1000B0001F0100081F0100081F0100081516000895
:1000C0001F0100081F0100081F0100081F01000890
:1000D0001F0100081F0100081F0100081F01000880
:1000E0001F0100081F0100081F010008DFF810D0E1
:1000F00000F042F80048004701260008AFF30080F6
:10010000C00500200648804706480047FEE7FEE796
:10011000FEE7FEE7FEE7FEE7FEE7FEE7FEE7FEE7B7
:10012000B9220008ED000008D2B201E000F8012B6E
:10013000491EFBD270470022F6E710B513460A4667
:1001400004461946FFF7F0FF204610BD30B50B46B8
:10015000014600202022012409E021FA02F59D42F7
:1001600005D303FA02F5491B04FA02F52844151ECB
:10017000A2F10102F1DC30BD064C074D06E0E0685B
:1001800040F0010394E8070098471034AC42F6D3DE
:10019000FFF7B0FF082800082828000810B501F074
:1001A00007FF01F0EDFE702000F022F901F092FF50
:1001B000A82000F01DF901F08DFF002000F018F9D3
:1001C00001F088FF002000F013F901F083FF02F036
:1001D00030F80A2000F065F901F0D2FE702000F03E
:1001E00007F901F077FFBE2000F002F901F072FF7D
:1001F000082000F0FDF801F06DFF002000F0F8F895
:1002000001F068FF02F015F8BDE810400A2000F088
:1002100048B900002DE9F041002501F089FF01F007
:100220008FFF082001F0FBFF0024114F01F078FF41
:1002300000F051F900268021384600F08DFB00B116
:10024000012646EA4500C5B200224021384600F0AA
:1002500088FB00F040F9641CE4B2082CE6D301F0FE
:100260006FFF082001F0DBFF2846BDE8F0810000A9
:10027000000C01402DE9F0418AB0002406468DF8BB
:100280001C408DF820408DF810408DF80C408DF802
:1002900018408DF814408DF81C40274625460194DF
:1002A000029400F08AF8502000F0FBF840F2E45885
:1002B00007E0404601F0B3FF28466D1CADB264284C
:1002C00003D200F069F80006F3D401F059FE712062
:1002D00000F08EF801F0FEFEFFF79CFF8DF81C0089
:1002E0008DF8040001F063FFFFF794FF8DF8200004
:1002F0008DF8050001F05BFFFFF78CFF8DF8100013
:100300008DF8060001F053FFFFF784FF8DF80C0015
:100310008DF8070001F04BFFFFF77CFF8DF8180008
:100320008DF8080001F043FFFFF774FF8DF814000B
:100330008DF8090001F03BFFFFF76CFF8DF81C0002
:1003400001F051FF01F075FF062101A800F076F8D9
:100350009DF81C1088421CD19DF820009DF81010BB
:10036000074341EA07209DF80C1041EA00200009EC
:1003700030609DF80C009DF8181041EA00209DF8AF
:10038000141041EA0020C0F3130070600AB0BDE809
:10039000F08134607460F9E710B501F0F1FD71206F
:1003A00000F026F801F096FEFFF734FF044601F056
:1003B0001AFF01F03EFF204610BD10B501F0E0FD30
:1003C000702000F015F801F085FEAC2000F010F868
:1003D00001F080FE332000F00BF801F07BFE0020DE
:1003E00000F006F801F076FEBDE8104001F021BFF4
:1003F00070B505468026002401F09AFE00F05CF8F6
:100400002E4202D001F0AAFE01E001F0BBFE01F095
:1004100087FE00F051F86806641C050EE4B2082C53
:10042000EAD301F085FE082001F0F9FE01F088FE14
:10043000BDE87040082001F0F2BEFEE770B504464A
:10044000FF20002231250FE0A35C58400823060658
:1004500002D585EA400000E040005B1EC0B213F008
:10046000FF03F4D1521CD2B28A42EDD370BD00001A
:10047000014800F097B800007C010020014800F01E
:1004800091B8000038010020014800F08BB800004E
:10049000AC000020014800F085B800006800002092
:1004A000704710B503464FF47A7402E0204601F01D
:1004B000B6FE5B1EFAD210BD00B5012000F01DF89B
:1004C000012000F01AF8012000F017F801205DF873
:1004D00004EB00F012B800B5012000F00EF8012086
:1004E00000F00BF8012000F008F8012000F005F8FA
:1004F00001205DF804EBAFF30080401EFDD2704791
:1005000072B6FEE710B590F821100024022903D03E
:100510000421816301243DE001680A6822F00E0293
:100520000A6001680A6822F001020A601A4A01683A
:10053000914201D1012121E0174A1432914201D1A7
:1005400010211BE0144A2832914201D1891515E08F
:10055000114A3C32914201D189140FE00E4A5032C7
:10056000914202D14FF4803108E00B4A643291424B
:1005700002D14FF4801101E04FF08071064A083A31
:100580005160012180F82110002180F82010416B7A
:1005900001B18847204610BD0800024090F82100B4
:1005A000704700002DE9F05FC16B0C6801680B68B3
:1005B000D0F840C0042202FA0CF2494DDFF824A121
:1005C000494E4A4FDFF828B1DFF828E122422CD00B
:1005D0005A072AD50A68920603D40A6822F0040250
:1005E0000A600168A94201D1042219E0514501D1F4
:1005F000402215E0B14202D14FF4806210E0B942CE
:1006000002D14FF480420BE0594502D14FF48022D1
:1006100006E0714502D14FF4800201E04FF08062A4
:100620002F4908394A60C16A3BE04FF0020808FAD6
:100630000CF818EA040F4FF000094FF0010235D012
:100640005FEA837832D50B689B0605D40B6823F0EC
:100650000A030B6080F821200168A94201D102221F
:1006600019E0514501D1202215E0B14202D14FF4E9
:10067000007210E0B94202D14FF400520BE059452C
:1006800002D14FF4003206E0714502D14FF400125E
:1006900001E04FF00072124908394A6080F820905A
:1006A000816A00291AD0BDE8F05F0847082505FADD
:1006B0000CF5254212D01B0710D50B6823F00E0352
:1006C0000B6090F84010C36B02FA01F1596082632D
:1006D00080F8212080F82090016BE2E7BDE8F09FD0
:1006E000080002401C00024030000240440002406A
:1006F000580002406C00024030B528B308C81349C6
:1007000014221944B1FBF2F18900C16310498163DD
:10071000022141771A6843F6F0718A43D0E9001448
:100720002143D0E902452C43214304692143446914
:10073000214384692143114319600021416301224F
:1007400042770177084630BD012030BDF8FFFDBF7C
:100750000000024070B5044600F008F90546601C30
:1007600002D004480078044400F000F9401BA04285
:10077000FAD370BD000000202DE9F84FDFF8B891E2
:100780000024A9F1040B23460F2709F1040AABF159
:10079000040EC9E00125A5402A40AA427DD1674E3A
:1007A000D1F804C0ACEB0608B44532D014DCBCF17F
:1007B000030F3AD009DCBCF1000F2AD0BCF1010FC5
:1007C0001CD0BCF1020F31D11DE0BCF1110F17D0CC
:1007D000BCF1120F2AD119E0B8F5881F19D006DC38
:1007E000B8F5803F15D0B8F5801F1FD111E0B8F5DE
:1007F000001F0ED0B8F5041F18D10AE0CB6815E031
:10080000CB681B1D12E0CB6808330FE0CB680C33BC
:100810000CE08B682BB1012B4FF0080303D045612E
:1008200004E0042302E0056100E00023FF2A01D870
:10083000064601E000F104064FEA840501D9A5F15E
:100840002005D6F8008007FA05FC28EA0C0803FA10
:1008500005F548EA0508C6F800804D68ED0062D548
:10086000374DAE6946F00106AE61AD6924F003066E
:1008700005F001050095334D06EB050CDCF808503A
:10088000A607360F07FA06F825EA0805DFF8B8804C
:10089000404503D14FF0000817E044E0DFF8AC809A
:1008A000404502D14FF001080FE0DFF8A480404539
:1008B00002D14FF0020808E0DFF89880404502D1ED
:1008C0004FF0030801E04FF0040808FA06F848EA80
:1008D0000508CCF808804D68D9F80060ED024D4657
:1008E00001D5164300E096432E604D68DAF80060AB
:1008F000AD02554601D5164300E096432E604D6883
:10090000DBF80060AD035D4601D5164300E0964379
:100910002E604D68DEF80060ED03754601D5164384
:1009200000E096432E60641C0D682A46E5407FF483
:1009300031AFBDE8F88F000008040140000011103D
:10094000001002400000014000080140000C01407E
:1009500000100140001401408068084000D00120D0
:1009600070470AB1016170470904FBE701488068DC
:100970007047000000000020704770472DE9F047E5
:10098000026800215368C66A90F83E4090F83D50D6
:10099000102C12D0402C10D0046C002C7DD0546947
:1009A000E443A6077AD4DE43B60577D4036C03B1DB
:1009B0009169BDE8F04701F011BA976951694FF4A8
:1009C0002A0CC9435FEAC1784FF02A4904D0664532
:1009D0002AD04E4528D010E0DE43B6050DD4C16ABA
:1009E000614501D1012103E0C16A494501D10821D6
:1009F000C162BDE8F04701F057B90E0716D4DE43D7
:100A0000B60513D4416CC9B21161416B09B1896A51
:100A100029B9816B002907D0896A002904D00068B0
:100A2000416841F400614160BDE8F0878E0706D45B
:100A3000DE43B60503D4BDE8F04701F089B8FE43B4
:100A4000526876074FEA02521DD4002AECDB0A06F0
:100A500008D4DA43520505D4490705D5BDE8F04767
:100A600001F01AB84907DFD4D9438905DCD4212D18
:100A700005D0402CD8D1BDE8F04701F05BB9BDE806
:100A8000F04700F0C7BF002ACEDB4A060BD4DA439A
:100A9000520508D4490708D501E00DE00EE0BDE895
:100AA000F04700F03DBF4907BED4D9438905BBD408
:100AB000BDE8F04700F0C6BE916970E7E10606D4D4
:100AC000D943890503D4BDE8F04701F0ABB928212B
:100AD000212D27D0292D25D0650655D4DD436D0560
:100AE00052D4640752D590F83D30448D002C9BD0F1
:100AF0001269446A2270426A521C4262428D521E3E
:100B00004285428D002A8FD12A2B8DD102685368ED
:100B100023F4806353602222026380F83D1000F0CA
:100B200075F981E7250623D4DD436D0520D46407DC
:100B300020D590F83D30448D002CF2D0446A2478C2
:100B40001461426A521C4262428D521E4285428D9D
:100B5000002AE6D1292BE4D10268536823F480638C
:100B600053602122026380F83D1000F050F95BE7EA
:100B70006107D6D4D9438905D3D4418D0029D0D07B
:100B8000416A097811610AE06107CAD4D94389052D
:100B9000C7D4418D0029C4D01169426A1170416ADD
:100BA000491C4162418D491E41853DE77047000067
:100BB00070B5040025D094F83D00002520B984F8D4
:100BC0003C50204600F0BEF8242084F83D00206808
:100BD000016821F0010101602068016841F40041D1
:100BE00001602068016821F40041016000F03EFAD4
:100BF0004D4A6168914201D84C4900E04C49884215
:100C000001D2012070BD4B492368B0FBF1F15E6851
:100C100026F03F060E435E606368934206D94FF4A8
:100C2000967359434FF47A73B1FBF3F12368491C6F
:100C30001E6A26F03F06314319626168914210D85E
:100C40004900401EB0FBF1F2521CC2F30B02042A11
:100C500001D2042022E0B0FBF1F0401CC0F30B00F5
:100C60001CE0A268F2B301EBC10303EB0116431EC3
:100C7000B3FBF6F35B1C43F480431B0549D092B3EE
:100C800001EBC10202EB0111401EB0FBF1F0401C70
:100C9000C0F30B0040F4804040F400402168CA6972
:100CA0004CF6FF739A431043C861D4E9071001431F
:100CB0002068026822F0C00211430160D4E90301F8
:100CC00001432068826848F2FF339A4311438160F0
:100CD000D4E9050108432168CA6822F0FF021043E5
:100CE000C86001E00EE016E02068016841F00101F3
:100CF00001602564202084F83D00256384F83E507F
:100D0000002070BD01EB4106431EB3FBF6F35B1CF4
:100D1000B3E70120C2E701EB4101401EB0FBF1F057
:100D2000401CC0F30B00B7E7A086010080841E00C2
:100D300000093D0040420F00704770477047704700
:100D400070470000F0B585B0002406460094019479
:100D5000029403940068284988424AD1274DA86923
:100D600040F00800A861A869694600F008000490F6
:100D7000C020009012200190032003902048FFF72C
:100D8000FBFCE86940F40010E861E8691E4D00F4DE
:100D9000001004901B48C5E900048027C5E90247FC
:100DA0002C616C61AC612846EC61FFF7A5FC08B1D1
:100DB000FFF7A6FBB5636E62134D12484435143835
:100DC00001C5102091C5104845F8104944306C61A8
:100DD000AC61EC61FFF790FC08B1FFF791FB756324
:100DE000002211461F206E6200F078F81F2000F0EC
:100DF00067F805B0F0BD000000540040001002404C
:100E0000000C0140800002406800002070477047DD
:100E10000248816802781144816070470000002018
:100E2000074810B5016841F010010160032000F08F
:100E300075F80F2000F006F800F024F8002010BD2F
:100E40000020024070B50D4D04464FF47A712878A9
:100E5000B1FBF0F00A490968B1FBF0F000F0DCFAF0
:100E600048B9102C07D200222146501E00F036F857
:100E700000206C6070BD012070BD000000000020EB
:100E80000C0000200C4808B5816941F00101816126
:100E9000816901F001010091C16941F08051C16196
:100EA000C06900F0805000900448416821F0E06182
:100EB00041F00071416008BD001002400000014097
:100EC000002809DB00F01F02012191404009800049
:100ED00000F1E020C0F8001170470000F0B40E4BA4
:100EE0001B680C46C3F30223C3F10705042D00D988
:100EF0000425191D072901D2002300E0DB1E01266D
:100F000006FA05F1491E214099409E40761E164082
:100F10003143F0BC01F09EBA0CED00E0064900F050
:100F2000070208684FF6FF03184040EA0220034A10
:100F300010430860704700000CED00E00000FA0567
:100F40002DE9F0470F46050061D0434E306800F0B0
:100F50000700B84209D2306820F0070038433060FB
:100F6000306800F00700B84251D128683B4C810737
:100F700012D5400703D5606840F4E06060602878CF
:100F8000000703D5606840F4605060606068A9683D
:100F900020F0F000084360602878C00728D0686817
:100FA000012810D02168022810D0890700292EDAE4
:100FB000616821F0030101436160FFF7D7FC8046BF
:100FC00041F288390DE021688903EFE78901EDE7F7
:100FD000FFF7CCFCA0EB0801494502D90320BDE88E
:100FE000F0876068696800F00C00B0EB810FEFD10A
:100FF000306800F00700B8420BD9306820F00700D5
:1010000038433060306800F00700B84201D001205A
:10101000E5E72878400705D56068E96820F4E060D6
:10102000084360602878000706D56068296920F4C5
:10103000605040EAC100606000F038F86168084A1A
:10104000C1F30311515CC8400649086006480068B6
:10105000FFF7F8FE0020C2E7002002400010024027
:10106000EE2700080C000020040000200448054979
:1010700000684968044AC1F30221515CC8407047C6
:101080000C00002000100240FE270008044805491B
:1010900000684968044AC1F3C221515CC8407047E6
:1010A0000C00002000100240FE2700080E4A516884
:1010B0000E4801F00C03042B11D0082B0FD10C4863
:1010C000C1F38343C903C05C0AD55168084AC1F320
:1010D0004041921E515C054A5043B0FBF1F070470D
:1010E00004494843704700000010024000127A0093
:1010F000DE27000800093D002DE9F84F040070D0FC
:101100002078C04DC00749D06868C0F3810001282D
:1011100007D06868C0F38100022809D16868C0035D
:1011200006D52868800339D560680028E7D035E007
:101130006068B0F5803F0BD010B1B0F5A02F11D092
:10114000286820F480302860286820F4802002E09D
:10115000286840F480302860606890B1FFF706FC92
:1011600006460AE0286840F480202860F0E700BFC7
:10117000FFF7FCFB801B642873D828688003F7D531
:101180000CE0FFF7F3FB064605E000BFFFF7EEFBC0
:10119000801B6428F0D828688003F7D420789A4E02
:1011A00080074FF001094FF0000839D5686810F04A
:1011B0000C0F07D06868C0F38100022809D1686865
:1011C000C00306D42868800714D52069012808D1F7
:1011D00010E02069B0B1C6F80090FFF7C7FB0746E2
:1011E00005E00AE1FFF7C2FBC01B0228C4D828684B
:1011F0008007F7D52868616920F0F80040EAC1004F
:1012000028600DE0C6F80080FFF7B0FB074604E059
:10121000FFF7ACFBC01B022823D828688007F7D44F
:10122000207800072CD57948A169D9B1C0F8009081
:10123000FFF79CFB074604E0FFF798FBC01B022862
:101240000FD8686A8007F7D571484FF4FA510068E3
:10125000B0FBF1F0009000BF0098411E0091FAD25F
:101260000EE080E0C0F80080FFF780FB074604E056
:10127000FFF77CFBC01B022875D8686A8007F7D48B
:101280002078400760D5E8690027C00008D4E869E5
:1012900040F08050E861E869012700F0805000903C
:1012A0005C480168C90513D40168834641F4807124
:1012B0000160FFF75BFB824606E000BFFFF756FBCD
:1012C000A0EB0A0064284ED8DBF80000C005F5D575
:1012D000E06801280AD008B1052813D0286A20F058
:1012E00001002862286A20F0040002E0286A40F029
:1012F00001002862E06841F2883B98B1FFF736FBB5
:1013000082460BE0286A40F004002862EEE700BF46
:10131000FFF72CFBA0EB0A0159455AD8286A800731
:10132000F6D50CE0FFF722FB824605E0FFF71EFB37
:10133000A0EB0A0159454CD8286A8007F6D41FB1A2
:10134000E86920F08050E861E06988B36968C1F31A
:101350008101022944D00228C6F8608004D0FFF73A
:1013600005FB044638E034E0FFF700FB074604E0E5
:10137000FFF7FCFAC01B02282BD828688001F7D49D
:10138000206AB0F5803F05D16868A16820F400307C
:1013900008436860D4E908010843696821F47411BE
:1013A00008436860C6F86090FFF7E0FA044606E07C
:1013B00025E000BFFFF7DAFA001B022809D82868E9
:1013C0008001F7D51BE000BFFFF7D0FA001B022811
:1013D00002D90320BDE8F88F28688001F4D40EE01C
:1013E0000128F7D06868226A00F48031914204D164
:1013F000616A00F47010884201D00120EAE7002001
:10140000E8E700000010024000004242800442422F
:101410000C0000200070004010B5401EB0F1807F2D
:1014200001D3012010BD4FF0E02460610F2160174F
:1014300001F010F80020A06107202061002010BDFD
:1014400070B5040004D094F84100002510B106E006
:10145000012070BD84F84050204600F023F824207D
:1014600084F841002068C16821F40051C160204621
:1014700000F04AFF2068016921F490410161206871
:10148000416921F02A0141612068C16841F400519D
:10149000C1606564202084F8410084F842006563DF
:1014A000002070BDF0B585B000240646009401947C
:1014B000029403940068294988424CD128488169E4
:1014C00041F480418161816901F480410491816925
:1014D00041F0040181618069224D00F00400049014
:1014E0004FF40070009002200190032003906946A1
:1014F0002846FFF741F92815CDE90004694628463A
:101500000294FFF739F9194D17488027C5E90004FF
:10151000C5E902472C616C61AC612846EC61FFF7BC
:10152000EBF808B1FEF7ECFFF5636E620F4D0E4865
:101530004435143801C5102091C50C4845F81049B0
:1015400044306C61AC61EC61FFF7D6F808B1FEF78E
:10155000D7FFB5636E6205B0F0BD000000380140F2
:1015600000100240000801405800024038010020ED
:101570002DE9F843044690F84100984616460D467A
:10158000202802D00220BDE8F88385B17EB100207A
:101590006064212084F84100FFF7E8F9A6848146C1
:1015A000E684A0682027B0F5805F02D003E0012028
:1015B000E9E7206910B12E4600250EE000260CE078
:1015C0008021204600F0FCFEA8B9C6B116F8010B38
:1015D00021684860E08C401EE084E08C4B464FF070
:1015E0000002CDF800800028EAD14FF040012046EB
:1015F00000F0E6FE40B184F841700320C3E735F8FF
:10160000020BC0F30800E3E784F841700020BAE75A
:10161000FEE700000148FFF7B1B900001400002008
:1016200038B5406A002190F83D202B4B46F2A814B3
:101630001B68B3FBF4F3C3EBC30303EB8303009317
:101640003BB15B1E009303681B689B0505D5009B9F
:10165000F6E7036C43F020030364436B03B1996224
:10166000836B03B1996203681C6824F480641C6076
:101670004185436B03B15963836B03B159630368BD
:101680001C6824F001041C6090F83D402023602C6D
:101690000BD0282434EA02020FD080F83D3080F8C5
:1016A0003E1000BFFFF782FA38BD80F83D3080F869
:1016B0003E100164FFF760F938BD0268136843F01B
:1016C000010313600268136843F4806313600163CD
:1016D00080F83D40E6E700000C000020006841690A
:1016E000C943090601D400210161704770B5044661
:1016F00090F83D0094F83E10102901D0402906D101
:10170000222804D121680A6822F400620A60282194
:1017100031EA00024FF000054FF0200626D0216884
:101720004968090505D4602803D084F83D6084F831
:101730003E50256320684168090537D5416821F48A
:1017400000614160606B90F821203C49012A11D072
:101750004163606BFEF7D6FE38B32068016821F064
:101760000101016084F83D60606B1CE0256384F832
:101770003D10DFE7A06B4163A06BFEF7C3FEA0B195
:1017800020684169C943490605D40069616A087047
:10179000606A401C60622068016821F001010160FC
:1017A00084F83D60A06B416B884710E094F83D10D1
:1017B000602910D04169C943490605D40069616AAE
:1017C0000870606A401C60622046FFF7EFF9206CE9
:1017D000C1071CD115E084F83D6025644169C94307
:1017E000490605D40069616A0870606A401C60623D
:1017F0002068016821F0010101602046FFF7BCF874
:10180000E5E7810703D4410701D4000704D5206828
:10181000416821F4E061416094F83D00216C490782
:101820000BD5282809D10648E062256384F83D607D
:1018300084F83E502046FFF77FFA70BD211600085D
:101840000000FFFF10B5C26A438D0168042B06D06B
:10185000438D032B08D0438D022B1DD012E04A6824
:1018600022F480624A600CE04B6823F480634B6092
:10187000042A06D0022A04D001680A6822F4806291
:101880000A6001680969426A1170416A491C416233
:10189000418D491E418510BD012A34D0102A32D015
:1018A000042A34D0022A32D00B6843F400730B6050
:1018B00001680969436A1970416A491C4162438D94
:1018C0005B1E438503681B690B70416A491C4162BA
:1018D000418D491E418501684B6823F440734B607C
:1018E000202180F83D1090F83E300021402B80F8F8
:1018F0003E1010D0082A02D0202A00D01221016305
:10190000FFF71BFA10BD0B6823F48063CFE70B6869
:1019100043F48063CBE70163FFF711FA10BD0000C9
:1019200038B590F83D10222910D1C36A418D0329A2
:101930000DD901680969426A1170416A491C416206
:10194000418D491E4185418D032906D038BDC26AAB
:10195000022A02D0012906D029B10068416821F489
:101960008061416038BD2A4A46F2A81400211268FD
:10197000B2FBF4F202EB8202009202682024009D86
:101980006D1E009526D01568AD05F8D4156825F4B0
:10199000806515600268556825F4E0655560026849
:1019A0001269456A2A70426A521C4262428D521E76
:1019B000428580F83D4090F83E2080F83E10402A55
:1019C00021D0082B02D0202B00D012210163FFF779
:1019D000B4F938BD036C43F020030364536823F467
:1019E000E063536002681269436A1A70426A521CCB
:1019F0004262428D521E428580F83D4080F83E1082
:101A0000FFF7D4F838BD0163FFF799F938BD00003E
:101A10000C00002010B5C26A90F83D1021290BD1AE
:101A2000418D51B1416A026809781161416A491CCE
:101A30004162418D491E418510BD20230021082AA5
:101A400013D0202A11D012F5803F0ED002685468BE
:101A500024F4E06454601122026380F83E1080F8A0
:101A60003D3000BFFFF76AF910BD0268546824F4E6
:101A7000E06454600268146844F400741460016304
:101A800080F83D3090F83E2080F83E10402AE9D1A1
:101A9000FFF756F910BD000010B590F83D1090F812
:101AA0003E30C26A048DB4B1212903D0402B11D13C
:101AB00022290FD1418DE1B390F83E10402942D048
:101AC000416A026809781161416A491C4162418D8D
:101AD000491E418510BD2129E8D120230021082A73
:101AE00013D0202A11D012F5803F0ED0026854681E
:101AF00024F4E06454601122026380F83E1080F800
:101B00003D3000BFFFF71AF910BD0268546824F495
:101B1000E06454600268146844F400741460016363
:101B200080F83D3090F83E2080F83E10402AE9D100
:101B300000E002E0FFF704F910BD0068416821F4FD
:101B40008061416010BDBDE8104000F0F3B80000B6
:101B500078B590F83E50C26A046B90F83D6000235F
:101B60000168222E73D1066D0EB9402D6FD0056D20
:101B70001DB90569B5F5404F1BD0458D95B3468D10
:101B8000484D012E20D0448D022C4DD00C6844F4D9
:101B900080640C6001684C68240579D5AA4273D032
:101BA000012A71D0082A6FD0102A6DD0202A6BD05C
:101BB0006EE04A698A6900920A6842F480720A609B
:101BC000016D491C016578BDAA4214D10A6822F44E
:101BD00080620A6001684A68120504D50A6822F426
:101BE000806217E0FFE74A698A6900920A6842F456
:101BF00000720A6050E0082A10D0202A0ED0122C61
:101C00000AD0042A03D0022A01D0102AE6D10A6899
:101C100042F480620A603BE0012ADFD00A6822F4C5
:101C200080620A600168DEE7042A11D0022A0FD020
:101C3000102A0DD00C6844F400640C6001684C69F3
:101C40008C6900940C6824F480640C6008E025E042
:101C50000C6844F480640C6001684C6989690091E7
:101C600001684C68240517D5AA4207D0012A05D07F
:101C7000082A03D0102A01D0202A0DD14A6842F444
:101C800080524A6008E0FFE74A6842F480524A60A6
:101C900001684A6989690091036578BD4869886966
:101CA000009078BD0000FFFF90F83E10402910D052
:101CB0000169B1F5804F19D0016DA9B3016D0129FA
:101CC00010D1416C5FF0F10201F4407142EAD11190
:101CD00006E0016D0029416C05D0C9B241F0010157
:101CE00000680161704701F0FE01F9E790F83D10CE
:101CF0002129416C09D0C9B241F00101026811618A
:101D0000416B29B1896A49B902E001F0FE01F5E7AA
:101D1000816B0029E6D0896A0029E3D00068416818
:101D200041F4006141607047FFE7416CF02201F42B
:101D30004071CBE710B590F83D10026D4AB1026DCD
:101D4000012A14D0026D022A16D0BDE81040FFF718
:101D5000C5BCC16C0129816C02D0C1F3072108E028
:101D60000268C9B21161016D891C016510BD816CE9
:101D7000C9B20268116123E022291CD0428D0AB148
:101D8000212920D0428D002AF0D12129EED10168ED
:101D90004A6822F4E0624A6001680A6842F400720C
:101DA0000A6000210163202280F83D2080F83E1067
:101DB000FEF7C6FF10BD01680A6842F480720A602F
:101DC000016D491CD1E7416A026809781161416AD5
:101DD000491C4162418D491E418510BD38B50C46F4
:101DE00090F83D2000212825954302680B4605D038
:101DF00051699169009180F83C3038BD556825F4EF
:101E000080655560E243540700D50121120601D5D3
:101E1000828900E0028B80F83C3092B2FEF7ADFD83
:101E200038BD0000F8B590F83D6004460068416890
:101E300021F4E0614160206800254169009101685A
:101E400041F0010101602068016821F480610160B6
:101E500020684168090520D5474F222E48D02A2EF8
:101E600046D0616B096849686185618D19B1216C43
:101E700041F004012164416821F400614160606B1C
:101E8000FEF78CFB012808D0606B4763606BFEF7A0
:101E900039FB10B1606B416B8847608D08B32068D7
:101EA0004169C943490708D40069616A0870606ADA
:101EB000401C6062608D401E608520684169C94396
:101EC000490608D40069616A0870606A401C606253
:101ED000608D401E6085608D18B1206C40F004005C
:101EE0002064206C00B32046BDE8F840FFF7FEBB3D
:101EF000A16B096849686185618D19B1216C41F058
:101F000004012164416821F400614160A06BFEF787
:101F100045FB0128C1D0A06B4763A06BFEF7F2FA26
:101F20000028BAD0A06BB6E72A2E06D12563282058
:101F300084F83D002046FEF769FF94F83D1020200C
:101F400028290DD0216B222901D0222E07D125630B
:101F500084F83D0084F83E502046FEF757FFF8BD58
:101F60000649E162256384F83D0084F83E5020462E
:101F7000FEF7E2FEF8BD0000211600080000FFFF9A
:101F800010B500F0EBF8082000F049F900F0C8F8AF
:101F9000082000F044F900F0F5F8082000F03FF9BF
:101FA00000F0C6F8BDE81040082000F038B9000085
:101FB0002DE9FF4101248020CDE900040D4E0325C9
:101FC000694603953046FEF7D7FB0122D703394611
:101FD0003046FEF7C6FC4020CDE900046946039573
:101FE0003046FEF7C9FB012239463046FEF7B9FC00
:101FF000BDE8FF81000C0140154808B5416941F07A
:10200000010141614069002200F001000090114689
:102010000E20FEF763FF0E20FEF752FF002211464E
:102020000F20FEF75BFF0F20FEF74AFF002211464C
:102030001020FEF753FF1020FEF742FF002211464A
:102040001120FEF74BFFBDE808401120FEF738BF16
:10205000001002400D4810B50B4901600C49416069
:1020600000214FF480428160C0E903124161816127
:10207000C1610162FEF79CFD002803D0BDE810405D
:10208000FEF73EBA10BD00000054004014000020CE
:10209000A08601000C4810B50A4901604FF4E131F7
:1020A0004160002181600C22C160C0E9041281619D
:1020B000C161FFF7C5F9002803D0BDE81040FEF765
:1020C0001FBA10BD00380140F0000020FEE7FEE717
:1020D0007047000070B5002400F02AF800F030F8D6
:1020E000082000F09CF800F01BF8082000F097F89A
:1020F0000A4D01E0641CA4B280212846FEF72CFCA6
:1021000008B1642CF6D3642C06D000F011F8082036
:1021100000F085F8012070BD002070BD000C01406A
:10212000012240210148FEF71CBC0000000C0140C8
:10213000002240210148FEF714BC0000000C0140C1
:102140001FB5002001908020009003200390694675
:102150000148FEF711FB1FBD000C01401FB5012017
:102160000190802000900320054C03906946204692
:10217000FEF702FB012280212046FEF7F2FB1FBD85
:10218000000C01401FB50120019080200090032029
:10219000054C039069462046FEF7EEFA00228021A6
:1021A0002046FEF7DEFB1FBD000C0140704710B556
:1021B000FFF7BEFF082000F032F8FFF7E3FF08202A
:1021C00000F02DF8FFF7ACFF082000F028F8FFF72B
:1021D000AFFF082000F023F8FFF7B2FFBDE8104082
:1021E000082000F01CB810B5FFF7A2FF082000F08F
:1021F00016F8FFF7B3FF082000F011F8FFF790FF83
:10220000082000F00CF8FFF793FF082000F007F813
:10221000FFF7B8FFBDE810400820AFF3008000B51D
:10222000801E020004D00120FEF767F9521EFAD189
:1022300000BD10B5FFF7A6FF0820FFF7F0FFFFF77E
:102240006FFF0820FFF7EBFFFFF788FFBDE81040A6
:102250000820FFF7E4BFFEF7DBBD30B58FB02821C3
:102260006846FDF768FF14210AA8FDF764FF012105
:102270000804CDE900100024029402250491CDE960
:1022800007504FF4E01009906846FEF735FF08B19B
:1022900072B6FEE70F20CDE90A054FF48060CDE964
:1022A0000C4002210AA80E94FEF74AFE002801D035
:1022B00072B6FEE70FB030BD704701680C3151E8CF
:1022C000002F22F4907241E80023002BF5D1016821
:1022D000143151E8002F22F0010241E80023002BC5
:1022E000F5D1016B012909D101680C3151E8002FAA
:1022F00022F0100241E80023002BF5D1202180F8C4
:10230000421000210163704770B5044600680169FE
:10231000E26821F44051114301612169A06808433A
:10232000616908432168CA6841F20C639A43024319
:10233000CA6020684169A26921F44071114341617A
:102340001E492068884202D1FEF7A0FE01E0FEF798
:102350008DFE00EBC00101EB00126068642180007B
:10236000B2FBF0F3B3FBF1F36FF018067343B2FB6B
:10237000F0F5B2FBF0F605EB8305322303EB051510
:10238000B5FBF1F5B6FBF1F605F0F00505EB06152A
:10239000B2FBF0F6B2FBF0F0B0FBF1F06FF0180218
:1023A000504306EB800003EB0010B0FBF1F0216816
:1023B00000F00F002844886070BD00000038014024
:1023C0002DE9F843984617460D460446089E24E03A
:1023D000701C22D0FEF7CAFAA0EB0800B0421AD84F
:1023E000CEB12068C168490717D5802D15D0402D82
:1023F00013D00168C94309070FD40168002540685C
:1024000000902046FFF759FF0820606484F8405090
:102410000120BDE8F8830320FBE72068006835EA67
:10242000000004D00020B842D2D00020F1E7012003
:10243000F9E7FEE70FB4054B10B503A9044A02986B
:1024400000F028F810BC5DF814FB0000E925000836
:10245000100000200907090E002804DB00F1E0202D
:1024600080F80014704700F00F0000F1E02080F8C1
:10247000141D704702E008C8121F08C1002AFAD1D3
:1024800070477047002001E001C1121F002AFBD1F4
:10249000704700002DE9FF4F89B09B460446002598
:1024A00006E025280BD05A460B999047641C6D1CFA
:1024B00020780028F5D10DB02846BDE8F08F002720
:1024C000B8460122474900E0074314F8013F203B8A
:1024D00002FA03F00842F7D120782E2819D114F817
:1024E000010F47F004072A280ED06FF02F02207842
:1024F000A0F1300109290CD808EB880102EB410159
:1025000000EB0108641CF2E70A98641C50F8048B85
:102510000A9020780028CED0642808D0692806D0F8
:1025200075281ED05A460B9990476D1C58E00A99A1
:102530004FF00A0901C90A91002802DA40422D2110
:1025400002E0390504D52B218DF82010012103E08C
:10255000F90704D02021F7E78A4608AE0DE00021F4
:10256000FAE70A994FF00A0901C90A91F7E74946C3
:10257000FDF7ECFD303106F8011D0028F7D1ADEB79
:10258000060000F12009780701D44FF00108C84582
:1025900002DDA8EB090000E000208046002706E0ED
:1025A00008A85A46C05D0B9990476D1C7F1C574583
:1025B000F6DB04E030205A460B9990476D1CB8F1C9
:1025C0000001A8F10108F5DC05E016F8010B5A46F8
:1025D0000B9990476D1CB9F10001A9F10109F4DCD8
:1025E000641C65E70928010013B54FF6FF7301224B
:1025F00069460248FEF7BCFF00981CBDF0000020B1
:1026000086B0002003904FF4FA7404902046FDF742
:1026100048FFFEF705FCFFF720FEFFF73BFDFFF745
:10262000EBFCFFF717FDFFF735FDFDF7B7FD204683
:10263000FDF737FF6742642566000A2403A8FDF70B
:1026400019FE03984FF47A714843000D05900498E1
:102650004900484307EB1050009058A0FFF7EAFEEE
:102660006420FEF777F857A0FFF7E4FE6420FEF73A
:1026700071F854A0FFF7DEFE6420FEF76BF851A05E
:10268000FFF7D8FE6420FEF765F84EA0FFF7D2FEF4
:102690006420FEF75FF84BA0FFF7CCFE6420FEF746
:1026A00059F848A0FFF7C6FE6420FEF753F845A08E
:1026B000FFF7C0FE6420FEF74DF842A0FFF7BAFE18
:1026C0006420FEF747F83FA0FFF7B4FE6420FEF752
:1026D00041F83CA0FFF7AEFE3BA0FFF7ABFE304653
:1026E000FEF738F8009890FBF4F104FB110390FB1F
:1026F000F4F090FBF4F104FB1102009890FBF5F16B
:1027000032A0FFF797FE059890FBF4F104FB11034C
:1027100090FBF4F090FBF4F104FB1102059890FBA0
:10272000F5F12AA0FFF786FE27A0FFF783FE2AA077
:10273000FFF780FE6420FEF70DF822A0FFF77AFE77
:102740006420FEF707F81FA0FFF774FE6420FEF771
:1027500001F81CA0FFF76EFE6420FDF7FBFF19A037
:10276000FFF768FE6420FDF7F5FF16A0FFF762FE95
:102770006420FDF7EFFF13A0FFF75CFE6420FDF778
:10278000E9FF10A0FFF756FE6420FDF7E3FF0DA060
:10279000FFF750FE6420FDF7DDFF0AA0FFF74AFEB9
:1027A0006420FDF7D7FF07A0FFF744FE06A0FFF760
:1027B00041FE3046FDF7CEFF40E700003F3F3F3F80
:1027C000000000002E0000000D0A00003F3F3A25E7
:1027D0006425642E256400003F3F000001020203CF
:1027E0000405060708090A0B0C0D0E0F1010000057
:1027F00000000000000001020304060708090000B1
:102800000000010203040000282800080000002046
:1028100014000000742400083C2800081400002064
:10282000AC05000084240008010000001000000036
:0C2830000000000000127A000000000010
:04000005080000ED02
:00000001FF
